:100000000C9458000C9480000C9480000C94800098
:100010000C9480000C9480000C9480000C94800060
:100020000C9480000C9480000C9480000C94800050
:100030000C9480000C9480000C9480000C94800040
:100040000C947C040C9480000C944A040C942404BA
:100050000C9480000C9480000C9480000C94800020
:100060000C94C6040C9480000000000025002800B9
:100070002B00040404040404040402020202020229
:10008000030303030303010204081020408001025C
:1000900004081020010204081020000000080002DB
:1000A0000100000304070000000000000000EA0D4A
:1000B00011241FBECFEFD8E0DEBFCDBF23E0A6EFF7
:1000C000B1E001C01D92A539B207E1F711E0A0E04F
:1000D000B1E0EEEAF8E202C005900D92A63FB1074A
:1000E000D9F710E0C8E5D0E004C02197FE010E94D6
:1000F0005312C735D107C9F70E94FE070C94551457
:100100000C94000008950895FC01538D448D252F13
:1001100030E0842F90E0821B930B541710F0CF96A1
:10012000089501970895FC01918D828D981761F0D3
:10013000828DDF01A80FB11D5D968C91928D9F5F1E
:100140009F73928F90E008958FEF9FEF0895FC01C9
:10015000918D828D981731F0828DE80FF11D858D7C
:1001600090E008958FEF9FEF0895FC01918D228D0F
:10017000892F90E0805C9F4F821B91098F73992794
:10018000089583EB92E00E94B50021E0892B09F4E9
:1001900020E0822F0895FC01848DDF01A80FB11D9E
:1001A000A35ABF4F2C91848D90E001968F739927AD
:1001B000848FA689B7892C93A089B1898C9183708B
:1001C00080648C93938D848D981306C00288F38984
:1001D000E02D80818F7D80830895EF92FF920F93B1
:1001E0001F93CF93DF93EC0181E0888F9B8D8C8DE3
:1001F000981305C0E889F989808185FD26C0F62E0F
:100200000B8D10E00F5F1F4F0F731127E02E8C8DA9
:10021000E8120CC00FB607FCFACFE889F989808193
:1002200085FFF5CFCE010E94CB00F1CF8B8DFE0173
:10023000E80FF11DE35AFF4FF0829FB7F8940B8F40
:10024000EA89FB89808180620AC09FB7F894EE89B1
:10025000FF896083E889F989808183708064808365
:100260009FBF81E090E0DF91CF911F910F91FF90B0
:10027000EF900895CF93DF93EC01888D8823C9F028
:10028000EA89FB89808185FD05C0A889B9898C919F
:1002900086FD0FC00FB607FCF5CF808185FFF2CF3A
:1002A000A889B9898C9185FFEDCFCE010E94CB0042
:1002B000E7CFDF91CF91089580E090E0892B29F07E
:1002C0000E94C10081110C940000089590E0FC018F
:1002D000E656FF4F2491FC01EA57FF4F3491FC0191
:1002E000EE58FF4FE491EE2309F43CC0222339F18C
:1002F000233091F038F42130A9F0223001F584B593
:100300008F7D12C0273091F02830A1F02430B9F44D
:10031000809180008F7D03C0809180008F778093D3
:1003200080000DC084B58F7784BD09C08091B00076
:100330008F7703C08091B0008F7D8093B000F0E094
:10034000EE0FFF1FE859FF4FA591B4919FB7F894A6
:10035000611104C08C913095382302C0EC913E2B82
:100360003C939FBF08953FB7F89480915E029091AF
:100370005F02A0916002B091610226B5A89B05C002
:100380002F3F19F00196A11DB11D3FBFBA2FA92F14
:10039000982F8827820F911DA11DB11DBC01CD0191
:1003A00042E0660F771F881F991F4A95D1F708957D
:1003B0008F929F92AF92BF92CF92DF92EF92FF9275
:1003C0006B017C010E94B3014B015C01C114D1049B
:1003D000E104F104F1F00E94B301DC01CB018819C2
:1003E0009909AA09BB09883E9340A105B10570F39C
:1003F00021E0C21AD108E108F10888EE880E83E0F6
:10040000981EA11CB11CC114D104E104F10419F718
:10041000DDCFFF90EF90DF90CF90BF90AF909F9097
:100420008F90089585ED8093BC008091BC0084FD81
:10043000FCCF10928E02089540913602262F30E0B4
:10044000240F311D21323105DCF420918E0224303D
:10045000C9F4FC0180E090E0861758F43091360230
:100460002191DC01AA5EBD4FA30FB11D2C93019613
:10047000F3CF80913602680F6093360280E00895D2
:1004800081E0089582E008950895E09167028091E7
:100490006602E81730F4F0E0EA50FE4F808190E009
:1004A00008958FEF9FEF0895909167028091660203
:1004B000981750F4E92FF0E0EA50FE4F208130E029
:1004C0009F5F9093670202C02FEF3FEFC90108952D
:1004D0008091660290E020916702821B9109089545
:1004E000CF92DF92EF92FF920F931F93CF93DF9300
:1004F0007C01CB018A0120918F02222389F0EB013C
:100500006B01C40ED51ECC15DD0569F06991D701CC
:10051000ED91FC910190F081E02DC7010995F3CF99
:10052000642F0E941C02C801DF91CF911F910F918F
:10053000FF90EF90DF90CF900895CF93DF931F92BD
:10054000CDB7DEB7698320918F022223D1F02091AD
:10055000B202203240F021E030E0FC0133832283FC
:1005600080E090E015C080919002E82FF0E0EF5617
:10057000FD4F998190838F5F809390028093B202A8
:1005800005C061E0CE0101960E941C0281E090E06E
:100590000F90DF91CF910895089580E090E0089545
:1005A0000F931F93CF93DF93EC018A81982F92953D
:1005B000990F907E8E81880F880F892B0885082BD4
:1005C0008A85982F9295990F907E8C85880F880F39
:1005D000892B1E85182BE881F9810280F381E02D9B
:1005E0004C8162EFCE010995E881F9810280F381A7
:1005F000E02D402F64EFCE010995E881F98102805A
:10060000F381E02D412F65EFCE01DF91CF911F9156
:100610000F910994FF920F931F93CF93DF931F9233
:10062000CDB7DEB78C01DC01ED91FC910480F58142
:10063000E02D21E0AE014F5F5F4F60ED09958981AC
:10064000883541F0803671F420E630E0F80132ABB5
:1006500021AB0DC028E530E0D801D2963C932E9313
:10066000D19705C0F80112AA11AAF12C3EC0D801F9
:10067000D0968C93D097ED91FC910480F581E02D7C
:1006800026E0A801405F5F4F68E8C8010995F82E91
:10069000D801ED91FC910480F581E02D22E1A801C3
:1006A0004A5E5F4F6EE8C8010995F822D801ED91C6
:1006B000FC910480F581E02D21E0A801485D5F4FA9
:1006C00061EAC8010995F822D801ED91FC910480F6
:1006D000F581E02D27E0A801475D5F4F61EEC8017D
:1006E0000995F822C8010E94D002F801F3AA8F2DC3
:1006F0000F90DF91CF911F910F91FF9008950E946D
:100700004014CF92DF92EF92FF920F931F93CF93FB
:10071000DF937C018A01D22FFC0184A991E09093A0
:100720008F028093B102109290021092B20280E583
:1007300093E00E949D0281E00E94690780918E02F1
:100740008111FCCFF70184A9CD2FD13208F0C0E28E
:1007500091E090938E0290938D022FEF20938C0264
:1007600010928B022C0F20938A0290936902909131
:100770006902880F892B8093690280916802813019
:1007800061F410926802809169028093BB008091AD
:10079000BC0083FDF8CF85EC01C085EE8093BC00E2
:1007A00080918E028130E1F380918B028C1710F4DE
:1007B000C0918B02AAE6B2E0E6EFF1E080E08C1790
:1007C00021F09D9191938F5FFACF10926702C093B1
:1007D000660290E080916702C81771F0FF24F394DD
:1007E000F90E6801C90ED11C80E593E00E94540205
:1007F000F60180839F2DEECF81E09D1380E0DF9195
:10080000CF911F910F91FF90EF90DF90CF900895BF
:10081000CF93C42FFC0184A991E090938F02809321
:10082000B102109290021092B20280E593E00E9411
:100830009D026C2F80E593E00E949D0281E00E9462
:10084000690781E0CF9108951F920F920FB60F9222
:1008500011242F933F934F935F936F937F938F93C5
:100860009F93AF93BF93EF93FF9383EB92E00E942C
:10087000CB00FF91EF91BF91AF919F918F917F91AD
:100880006F915F914F913F912F910F900FBE0F90FD
:100890001F9018951F920F920FB60F9211242F934D
:1008A0008F939F93EF93FF93E091C302F091C40263
:1008B0008081E091C902F091CA0282FD12C090814C
:1008C0008091CC028F5F8F732091CD02821751F0FF
:1008D000E091CC02F0E0ED54FD4F958F8093CC0277
:1008E00001C08081FF91EF919F918F912F910F9087
:1008F0000FBE0F901F9018951F920F920FB60F9278
:1009000011242F933F938F939F93AF93BF93809125
:100910005A0290915B02A0915C02B0915D0230910D
:10092000590223E0230F2D3720F40196A11DB11D9C
:1009300005C026E8230F0296A11DB11D2093590280
:1009400080935A0290935B02A0935C02B0935D0285
:1009500080915E0290915F02A0916002B09161026D
:100960000196A11DB11D80935E0290935F02A0933A
:100970006002B0936102BF91AF919F918F913F91BF
:100980002F910F900FBE0F901F9018951F920F92EE
:100990000FB60F9211242F933F934F935F936F9352
:1009A0007F938F939F93AF93BF93EF93FF93809128
:1009B000B900887F803609F49CC068F5883209F454
:1009C0005BC090F4803109F454C038F4882309F4F2
:1009D000F6C0883009F44DC0F6C0883109F44CC027
:1009E000803209F45DC0EFC0803409F468C048F477
:1009F000803309F455C0883309F0E5C080938C0238
:100A0000D8C0803509F44FC0883509F45DC08834FA
:100A100009F0D9C0D6C0883909F4C7C0A8F488370E
:100A200009F467C038F4883609F463C0803709F4E4
:100A300060C0C9C0883809F4B8C0803909F45FC003
:100A4000803809F0C0C05BC0803B09F486C038F430
:100A5000803A09F466C0883A09F47FC0B4C0803C8B
:100A600009F4A7C0883C09F4A4C0883B09F48AC0F3
:100A7000AAC08091690210C090918B0280918A0275
:100A8000981770F5E0918B0281E08E0F80938B02B6
:100A9000F0E0E659FD4F80818093BB0085EC86C075
:100AA00080938C028EC0E0918B0281E08E0F809348
:100AB0008B028091BB00F0E0E659FD4F808390915E
:100AC0008B0280918A026EC0E0918B0281E08E0FD2
:100AD00080938B028091BB00F0E0E659FD4F80834C
:100AE00080918D0281116DC081E08093680284EA5B
:100AF00061C083E080938E0210925802CFCF809124
:100B00005802803208F051C0E091580281E08E0F07
:100B1000809358028091BB00F0E0E85CFD4F808339
:100B2000BDCF85EC8093BC0010928E02809158025C
:100B3000803230F4E0915802F0E0E85CFD4F108222
:100B40006091580270E0E0916202F091630288E3E4
:100B500092E009951092580236C084E080938E028C
:100B60001092370210923602E0916402F091650211
:100B7000099580913602811105C081E0809336028B
:100B800010921602E091370281E08E0F80933702B7
:100B9000F0E0EA5EFD4F80818093BB0090913702C8
:100BA00080913602981708F479CF85E88093BC00CD
:100BB0000AC085EC8093BC0010928E0204C0109293
:100BC0008C020E941202FF91EF91BF91AF919F9111
:100BD0008F917F916F915F914F913F912F910F90E6
:100BE0000FBE0F901F901895CF92DF92EF92FF9259
:100BF0000F931F93CF93DF936C017A018B01C0E0B9
:100C0000D0E0CE15DF0581F0D8016D918D01D601C0
:100C1000ED91FC910190F081E02DC6010995892BA1
:100C200011F02196EECF7E01C701DF91CF911F9188
:100C30000F91FF90EF90DF90CF90089561157105AF
:100C400051F0FB0101900020E9F73197AF01461BFD
:100C5000570B0C94F40580E090E008950F931F93D8
:100C6000CF93DF93EC010E941E068C0166EE71E0CB
:100C7000CE010E941E06800F911FDF91CF911F9120
:100C80000F9108952F923F924F925F926F927F92B1
:100C90008F929F92AF92BF92CF92DF92EF92FF928C
:100CA0000F931F93CF93DF93CDB7DEB7A4970FB603
:100CB000F894DEBF0FBECDBF4B015C01F42E9B014B
:100CC000AC010E94C610882319F069EE71E027C0BC
:100CD00024013501E89477F82FEF3FEF4FE75FE706
:100CE000C301B2010E94C61081110DC02FEF3FEF6A
:100CF0004FE75FE7C301B2010E943E0E18161CF4D5
:100D00006DEE71E00CC02FEF3FEF4FE75FE4C501E0
:100D1000B4010E94C11018163CF461EF71E083EB3E
:100D200092E00E941E06BCC02FEF3FEF4FE75FEC42
:100D3000C501B4010E943E0E87FDEFCF20E030E0F8
:100D4000A901C501B4010E943E0E87FF0BC06DE2F0
:100D500083EB92E00E94ED003C01B7FAB094B7F843
:100D6000B09402C0612C712C10E060E070E080E073
:100D70009FE3F11641F020E030E040E251E40E94B0
:100D800020101F5FF6CFA50194010E94B40F4B0104
:100D90005C010E9492106AA3C72ED82EE92E19A2D8
:100DA000262F372F482F592F8E010F5D1F4F0BA372
:100DB0001CA39AE0292E312C412C512CCA01B901D7
:100DC000A20191010E94DB10605DF80162938F0126
:100DD000211531054105510589F7BF0183EB92E0EB
:100DE0000E941E068301080F191FFF2009F457C037
:100DF0006AA17C2D8D2D9E2D0E94430E9B01AC017E
:100E0000C501B4010E94B30F4B015C016EE283EB9C
:100E100092E00E94ED00080F191F8AE0282E312C65
:100E2000412C512C20E030E040E251E4C501B401F6
:100E30000E94A40E4B015C010E9492109B0140E0B5
:100E400050E019A2CBA0DCA0762E3AA3642EE52EAA
:100E5000CA01B901A20191010E94DB10605DF60197
:100E600062936F01211531054105510589F7BF01D5
:100E700083EB92E00E941E06080F191F672D7AA1CE
:100E8000862D9E2D0E94430E9B01AC01C501B4012D
:100E90000E94B30F4B015C01FA94F110C3CFC8015B
:100EA000A4960FB6F894DEBF0FBECDBFDF91CF91F1
:100EB0001F910F91FF90EF90DF90CF90BF90AF9078
:100EC0009F908F907F906F905F904F903F902F906A
:100ED0000895282F3091B202313208F04AC0809133
:100EE0008E028111FCCF9091B10242E040938E02BC
:100EF00020938D022FEF20938C0210928B0230935F
:100F00008A02E1E9F2E0AAE6B2E020E0321721F03D
:100F100041914D932F5FFACF10926902209169029F
:100F2000990F922B9093690290916802913061F42D
:100F300010926802909169029093BB009091BC005E
:100F400093FDF8CF95EC01C095EE9093BC00909185
:100F50008E029230E1F390918C029F3F79F0809164
:100F60008C02803241F080918C02803331F084E039
:100F700005C081E003C082E001C083E010929002CE
:100F80001092B20210928F0208950F931F93CF9385
:100F9000DF93EC0188819981009729F02A813B81B8
:100FA0002617370788F48B016F5F7F4F0E947A13F3
:100FB000009761F0998388831B830A832C813D818C
:100FC000232B11F4FC01108281E001C080E0DF914D
:100FD000CF911F910F910895CF93DF93EC018881FA
:100FE0009981009711F00E94F112198218821D82D6
:100FF0001C821B821A82DF91CF910895CF93DF93D9
:10100000CDB7DEB7C556D1090FB6F894DEBF0FBE17
:10101000CDBF789484B5826084BD84B5816084BD81
:1010200085B5826085BD85B5816085BD80916E0086
:10103000816080936E0010928100809181008260B7
:1010400080938100809181008160809381008091F4
:1010500080008160809380008091B10084608093E3
:10106000B1008091B00081608093B00080917A00DF
:10107000846080937A0080917A00826080937A0005
:1010800080917A00816080937A0080917A008068F4
:1010900080937A001092C100E091C302F091C402E3
:1010A00082E08083E091BF02F091C0021082E09163
:1010B000C102F091C20280E180831092CB02E091E4
:1010C000C702F091C80286E08083E091C502F091EA
:1010D000C602808180618083E091C502F091C602E2
:1010E000808188608083E091C502F091C602808192
:1010F00080688083E091C502F091C60280818F7D77
:1011000080831092670210926602109290021092F1
:10111000B20210928E0281E080938D0210926802DA
:1011200061E082E10E94660161E083E10E94660164
:101130008091B9008E7F8093B9008091B9008D7F36
:101140008093B90088E48093B80085E48093BC0064
:1011500082E890E0909365028093640283E890E0D7
:1011600090936302809362028CE593E00E940A03ED
:1011700090918F03992311F081110DC064E371E008
:1011800083EB92E00E942E0668EE73E080E090E030
:101190000E94D801E9CF80918D0390918E0388350C
:1011A0009105A1F080369105A1F462E571E083EB31
:1011B00092E00E942E068E010F5D1F4F1AA709A70D
:1011C0009E012F5F3F4F3CA72BA7B7C060E771E0A0
:1011D000EECF6CE971E0EBCF28E0AE014F5D5F4FE1
:1011E00067EF8CE593E00E948103DE019196FE019A
:1011F00031964D9150E060E070E0419351936193DE
:10120000719349A55AA5E417F50799F78111A1C073
:10121000412C512C90EC692E9FE7792E530142010D
:101220004CAE5DAE6EAE7FAE69EB71E083EB92E0EB
:101230000E941E0642E06CAD7DAD8EAD9FAD0E945A
:1012400042061AA219A21CA21BA21EA21DA243E4BE
:1012500049831A82EBA5FCA501900020E9F731979C
:101260007F018BA59CA5E81AF90AB701CE018196EA
:101270000E94C50781117DC4CE0181960E94EC07B2
:101280001A8219821C821B821E821D8262E070E01B
:10129000CE0101960E94C507811175C4CE01019649
:1012A0000E94EC078DA19EA1C9A0DAA0C114D104AF
:1012B00009F48BC4009709F071C44D815E81698186
:1012C0007A8183EB92E00E94F40589819A810E94E1
:1012D000F11289A19AA10E94F11263EC71E083EBF3
:1012E00092E00E941E0642E0C501B4010E9442063F
:1012F00060ED71E083EB92E00E941E0665ED71E007
:1013000083EB92E00E941E0642E0C301B2010E94FC
:10131000420662EE71E083EB92E00E942E0668EED8
:1013200073E080E090E00E94D80164EF71E080E01B
:1013300090E00E94D8010E945C018091640390912A
:101340006503019709F048CF8CE593E00E94D00235
:1013500043CFE980FA800B811C816496ECAEFDAE30
:101360000EAF1FAF64970D811E812F81388568965F
:101370000CAF1DAF2EAF3FAF689729853A854B85DF
:101380005C856C962CAF3DAF4EAF5FAF6C974D85D3
:101390005E856F857889ACE0440F551F661F771F07
:1013A000AA95D1F789899A89AB89BC8914E0880FFD
:1013B000991FAA1FBB1F1A95D1F7482B592B6A2BCF
:1013C0007B2B8D899E89AF89B88D04E0B595A79553
:1013D000979587950A95D1F7842B952BA62BB72B3C
:1013E000898C9A8CAB8CBC8CBA2CA92C982C882418
:1013F0004D8D5E8D6F8D78A185017401E42AF52AEB
:10140000062B172BA096ECAEFDAE0EAF1FAFA0972C
:1014100040916C0350916D0360E070E04C015D0100
:1014200034E0B594A794979487943A95D1F7841AA9
:10143000950AA60AB70AE3E0B595A795979587950B
:10144000EA95D1F7440F551F661F771F7C018D0168
:10145000E41AF50A060B170BA8019701A0916E0379
:10146000B0916F030E94FD102B013C01ABE075941D
:10147000679457944794AA95D1F7A5019401C501A3
:10148000B4010E94CB109B01AC01BCE0559547957F
:1014900037952795BA95D1F7A0917003B091710354
:1014A0000E94FD106B017C011EE0F594E794D79437
:1014B000C7941A95D1F7930182010C0D1D1D2E1DA5
:1014C0003F1D0DA71EA72FA738ABA5E0B0E0A901CF
:1014D00098010E94620FDC01CB0180589F4FAF4FF3
:1014E000BF4F692F7A2F8B2F992787FD9A950E94DE
:1014F000450E20E030E048EC52E40E9420106CAF32
:101500007DAF8EAF9FAF10917803A3961FAFA397C7
:101510002091790322962FAF229730917A03A296D9
:101520003FAFA29740917B0321964FAF21975091F7
:101530007C03A1965FAFA19780917D0389AF9091C5
:101540007E03A5969FAFA597A0917F032996AFAF85
:101550002997B0918003A496BFAFA497E090810330
:101560002396EFAE2397F0908203A696FFAEA69740
:10157000009183032A960FAF2A97CDA4DEA4EFA48F
:10158000F8A8FF0CCC08DC2C76012DA53EA54FA5B4
:1015900058A96C2D7C2D8C2D9C2D345F4140510918
:1015A000610971098109910929AB3AAB4BAB5CAB7D
:1015B0006DAB7EAB8FAB98AF59016A017B018C019B
:1015C0000E9405112AAF3BAF2B964FAF2B972C965D
:1015D0005FAF2C972D966FAF2D972E967FAF2E97DE
:1015E0002F968FAF2F9760969FAF609730917503BE
:1015F00020917403932F990F990B492F592F692F1D
:10160000792F892F0E9405110CE00E94FE1119010B
:101610002A013B014C013091770320917603932FEF
:10162000990F990BAAACBBAC2B96CFAC2B972C96F1
:10163000DFAC2C972D96EFAC2D972E96FFAC2E9706
:101640002F960FAD2F9760961FAD6097492F592F9A
:10165000692F792F892F0E94051108E00E94171227
:1016600051016201730184010E94351270588F4F3D
:101670009F4F20907203309073035101C12CD12CE5
:10168000E12CF12C00E010E00E94051101E20E9423
:10169000171224962FAF249725963FAF25972696AD
:1016A0004FAF269727965FAF279728966FAF28975B
:1016B000272E382E492EA0E00E94471209F466C159
:1016C000A1962FADA19799AD990F990BAAACBBAC80
:1016D0002B96CFAC2B972C96DFAC2C972D96EFAC9E
:1016E0002D972E96FFAC2E972F960FAD2F976096C5
:1016F0001FAD609739AD492F592F692F792F892F49
:101700000E94051129AF3AAF4BAF552E3B014C015A
:10171000A2962FADA29721969FAD2197990F990B75
:10172000A9A8BAA8CBA8DCA8EDA8FEA80FA918AD57
:1017300021963FAD2197492F592F692F792F892F56
:101740000E94051101E10E94FE11A9ACBAACCBAC1C
:10175000D52C730184010E94351259016A017B0165
:10176000582E192F68964CAD5DAD6EAD7FAD689764
:1017700094E0440F551F661F771F9A95D1F76C961A
:101780008CAD9DADAEADBFAD6C9724E0B595A79582
:10179000979587952A95D1F7842B952BA62BB72B58
:1017A00064964CAD5DAD6EAD7FAD64973CE0440F8B
:1017B000551F661F771F3A95D1F7842B952BA62BC3
:1017C000B72B20E030E040E150E0281B390B4A0BFA
:1017D0005B0BDA01C90139014A01990C6608762CC4
:1017E00043019C01AD01662D762D862D962D0FE1CE
:1017F0000E94FE1139014A01B62FA72FF82FE92FB9
:10180000A3962FADA39722969FAD2297990F990B80
:1018100022963FAD2297492F592F692F792F892F73
:1018200003E20E94FE11052D0E94351259016A0142
:101830007B018C019301A4016B2F7A2F8F2F9E2F98
:101840000E943E12E5E3AE2EFCE0BF2EC12CD12C4F
:10185000E12CF12C00E010E00E9405112496AFACC1
:1018600024972596BFAC25972696CFAC269727962A
:10187000DFAC27972896EFAC2897F22C032D142D78
:101880000E94601129AB3AAB4BAB5CAB6DAB7EAB4E
:101890008FAB98AF0DE00E941712322E292EA6961C
:1018A0002FADA6972A969FAD2A97990F990BA32C37
:1018B000B32EC42ED52EE62EF72E082F122D2A96E3
:1018C0003FAD2A97492F592F692F792F892F0E94D1
:1018D00005110E94051109E10E941712A9A8BAA8D2
:1018E000CBA8DCA8EDA8FEA80FA918AD0E94351260
:1018F00019012A013B014C01A4962FADA497239610
:101900009FAD2397990F990B23963FAD2397492FAE
:10191000592F692F792F892F0E94051103E10E9409
:10192000171259016A017B018C019101A201B301D7
:10193000C4010E94351208E00E94171259016A0181
:101940007B01E82F192FA5962FADA59729969FAD5E
:101950002997990F990B29963FAD2997492F592F10
:10196000692F792F892F04E00E94FE110E2F0E940B
:101970003512B901CA010E94430E20E030E040E870
:101980005BE30E94A40E2B013C0106C0412C512CAC
:1019900080EC682E8FE7782E20918903CDA4DEA4F9
:1019A000EFA4F8A83CE2D31A31E0E30AF108A096CC
:1019B0008CAC9DACAEACBFACA0973EE0880C991C43
:1019C000AA1CBB1C3A95D1F78091880340E1849F03
:1019D000C0011124322F3F70832B092E000CAA0B5B
:1019E000BB0B44E1880F991FAA1FBB1F4A95D1F773
:1019F000881A990AAA0ABB0AA0918A0350E1A59FF6
:101A0000D001112422952F70A22BA70196010E94CC
:101A1000FD10861A970AA80AB90A80E4980EA11C3C
:101A2000B11C6FE0B594A794979487946A95D1F709
:101A3000A0918703B0E00E94620FDC01CB017BE044
:101A4000B595A795979587957A95D1F78C019D01C6
:101A500010582F4F3F4F0DA71EA72FA738ABA091AF
:101A60008B030A2E000CBB0BA70196010E94FD10F0
:101A7000EAE09595879577956795EA95D1F72DA535
:101A80003EA54FA558A90E94CB10DC01CB01FAE07E
:101A9000B595A79597958795FA95D1F79C01AD01D6
:101AA000405E5F4FA0918503B09186030E94FD10B8
:101AB000DC01CB01905EAF4FBF4FBC01CD01AEE06A
:101AC0009595879577956795AA95D1F7A501940186
:101AD0000E94CB106B017C01BFE0959587957795AF
:101AE0006795BA95D1F79B01AC010E94CB109B0181
:101AF000AC0117E055954795379527951A95D1F77D
:101B0000A0918403B0E00E94620FDC01CB0104E0ED
:101B1000B595A795979587950A95D1F7A701960151
:101B2000281B390B4A0B5B0BDA01C90157FF03C0B5
:101B300080E090E0DC0181309105A10539E1B30737
:101B400024F080E090E0A0E0B9E1BC01CD012CE000
:101B500095958795779567952A95D1F70E94430EBD
:101B600020E030E040E85AE30E94A40E4B015C0103
:101B70005BCBFEA2EDA2BE016F5F7F4F89A19AA150
:101B80000E944E147DCB82E090E09E838D8360ECBA
:101B900071E089819A810E944E1484CBED80FE8091
:101BA000E80EF91EB701CE0101960E94C5078823F1
:101BB00061F029813A818D819E81B601820F931F48
:101BC0000E944E14FE82ED8278CBCE0101960E94D7
:101BD000EC0773CBE3EBF2E01382128288EE93E022
:101BE000A0E0B0E084839583A683B7832AE031E048
:101BF0003183208325EC30E03587248724EC30E0E6
:101C00003787268720EC30E0318B208B21EC30E0C9
:101C1000338B228B22EC30E0358B248B26EC30E0AA
:101C2000378B268B118E128E138E148EE0E5F3E027
:101C30001382128284839583A683B7838CE191E01B
:101C400091838083ECE5F3E081E090E093838283ED
:101C500095838483978386839187808785E090E04E
:101C600093878287158614861786168613AA8EE2B6
:101C700091E09183808386E784AB08950E94800E73
:101C800008F481E00895E89409C097FB3EF490952C
:101C90008095709561957F4F8F4F9F4F9923A9F045
:101CA000F92F96E9BB279395F695879577956795D4
:101CB000B795F111F8CFFAF4BB0F11F460FF1BC018
:101CC0006F5F7F4F8F4F9F4F16C0882311F096E9AB
:101CD00011C0772321F09EE8872F762F05C0662359
:101CE00071F096E8862F70E060E02AF09A95660F12
:101CF000771F881FDAF7880F9695879597F90895CB
:101D0000990F0008550FAA0BE0E8FEEF161617060C
:101D1000E807F907C0F012161306E407F50798F074
:101D2000621B730B840B950B39F40A2661F0232B8D
:101D3000242B252B21F408950A2609F4A140A69509
:101D40008FEF811D811D08950E94B70E0C94280FFE
:101D50000E941A0F38F00E94210F20F0952311F0F5
:101D60000C94110F0C94170F11240C945C0F0E940B
:101D7000390F70F3959FC1F3950F50E0551F629F87
:101D8000F001729FBB27F00DB11D639FAA27F00DD4
:101D9000B11DAA1F649F6627B00DA11D661F829FFB
:101DA0002227B00DA11D621F739FB00DA11D621FE0
:101DB000839FA00D611D221F749F3327A00D611DFD
:101DC000231F849F600D211D822F762F6A2F1124DF
:101DD0009F5750409AF0F1F088234AF0EE0FFF1F12
:101DE000BB1F661F771F881F91505040A9F79E3F69
:101DF000510580F00C94110F0C945C0F5F3FE4F3DD
:101E0000983ED4F3869577956795B795F795E795BE
:101E10009F5FC1F7FE2B880F911D9695879597F9C7
:101E2000089597F99F6780E870E060E008959FEF5C
:101E300080EC089500240A94161617061806090661
:101E4000089500240A941216130614060506089530
:101E5000092E0394000C11F4882352F0BB0F40F4B8
:101E6000BF2B11F460FF04C06F5F7F4F8F4F9F4FF8
:101E7000089557FD9058440F551F59F05F3F71F07A
:101E80004795880F97FB991F61F09F3F79F08795E1
:101E90000895121613061406551FF2CF4695F1DF6A
:101EA00008C0161617061806991FF1CF86957105FA
:101EB000610508940895E894BB2766277727CB012E
:101EC00097F908950E94A40FA59F900DB49F900DBF
:101ED000A49F800D911D112408952F923F924F923F
:101EE0005F926F927F928F929F92AF92BF92CF92AA
:101EF000DF92EF92FF920F931F93CF93DF93CDB7B3
:101F0000DEB7CA1BDB0B0FB6F894DEBF0FBECDBF2A
:101F100009942A88398848885F846E847D848C84FB
:101F20009B84AA84B984C884DF80EE80FD800C8104
:101F30001B81AA81B981CE0FD11D0FB6F894DEBFE7
:101F40000FBECDBFED010895A29FB001B39FC001A8
:101F5000A39F700D811D1124911DB29F700D811DD5
:101F60001124911D08955058BB27AA270E94CB0F1A
:101F70000C94280F0E941A0F38F00E94210F20F0B5
:101F800039F49F3F19F426F40C94170F0EF4E095E2
:101F9000E7FB0C94110FE92F0E94390F58F3BA1781
:101FA000620773078407950720F079F4A6F50C946F
:101FB0005B0F0EF4E0950B2EBA2FA02D0B01B9018B
:101FC00090010C01CA01A0011124FF27591B99F0AF
:101FD000593F50F4503E68F11A16F040A22F232FBB
:101FE000342F4427585FF3CF469537952795A7950B
:101FF000F0405395C9F77EF41F16BA0B620B730BB2
:10200000840BBAF09150A1F0FF0FBB1F661F771F22
:10201000881FC2F70EC0BA0F621F731F841F48F4D7
:10202000879577956795B795F7959E3F08F0B0CF60
:102030009395880F08F09927EE0F97958795089547
:102040000E9434100C94280F0E94210F58F00E9417
:102050001A0F40F029F45F3F29F00C94110F511131
:102060000C945C0F0C94170F0E94390F68F399239E
:10207000B1F3552391F3951B550BBB27AA27621784
:102080007307840738F09F5F5F4F220F331F441F91
:10209000AA1FA9F335D00E2E3AF0E0E832D09150C5
:1020A0005040E695001CCAF72BD0FE2F29D0660FB2
:1020B000771F881FBB1F261737074807AB07B0E8F5
:1020C00009F0BB0B802DBF01FF2793585F4F3AF0FB
:1020D0009E3F510578F00C94110F0C945C0F5F3FFC
:1020E000E4F3983ED4F3869577956795B795F79581
:1020F0009F5FC9F7880F911D9695879597F9089569
:10210000E1E0660F771F881FBB1F62177307840704
:10211000BA0720F0621B730B840BBA0BEE1F88F713
:10212000E09508950E94410F88F09F5798F0B92FCD
:102130009927B751B0F0E1F0660F771F881F991FFC
:102140001AF0BA95C9F714C0B13091F00E945B0F34
:10215000B1E008950C945B0F672F782F8827B85F44
:1021600039F0B93FCCF3869577956795B395D9F754
:102170003EF490958095709561957F4F8F4F9F4F5E
:1021800008950E94800E08F48FEF08950E94800E3B
:10219000880B990B0895DB018F939F930E94620F28
:1021A000BF91AF91A29F800D911DA39F900DB29FF3
:1021B000900D11240895A1E21A2EAA1BBB1BFD014C
:1021C0000DC0AA1FBB1FEE1FFF1FA217B307E40716
:1021D000F50720F0A21BB30BE40BF50B661F771F6E
:1021E000881F991F1A9469F760957095809590954E
:1021F0009B01AC01BD01CF010895B7FF0C94620FA4
:102200000E94620F821B930B0895DF93CF931F935D
:102210000F939A9DF02D219FF00D8B9DF00D8A9DBF
:10222000E02DF10D039FF00D029FE00DF11D4E9D7D
:10223000E00DF11D5E9DF00D4F9DF00D7F936F93AE
:10224000BF92AF925F934F93D5010E94A40F8B0171
:10225000AC01D7010E94A40FEB01E80FF91FD601D2
:102260000E9455112F913F91D6010E94A40FC60FD5
:10227000D71FE81FF91FAF91BF910E9455112F91F1
:102280003F910E94A40FC60FD71FE81FF91FD60168
:102290000E94A40FE60FF71F9801BE01CF01112481
:1022A0000F911F91CF91DF9108950E94A40F460FC7
:1022B000571FC81FD91F08F431960895689401C0AC
:1022C000E894F92FF12B12F00C949211A0E0B0E0F9
:1022D000ECE6F1E10C94730F092E059422F40E94B0
:1022E000EE11112392F4F0E80F26FFEFE094F09442
:1022F00000951095B094C094D094A194BF0ACF0AD1
:10230000DF0AEF0AFF0A0F0B1F0B0E949D1107FC4B
:102310000E94EE11CDB7DEB7ECE00C948F0F6894FD
:1023200001C0E8948F929F92CF93DF930E949D11FA
:10233000DF91CF919F908F90089588249924F40184
:10234000E401B0E49F93AA279A158B049C04ED0541
:10235000FE05CF05D007A10798F4AD2FDC2FCF2FB6
:10236000FE2FE92D982C892E982F872F762F652FF9
:10237000542F432F322F2227B85031F7BF9127C057
:102380001B2EBF91BB27220F331F441F551F661FF3
:10239000771F881F991F881C991CEE1FFF1FCC1FD9
:1023A000DD1FAA1FBB1F8A149B04EC05FD05CE058B
:1023B000DF05A007B10748F08A189B08EC09FD0962
:1023C000CE09DF09A00BB10B21601A94E1F62EF4BF
:1023D0009401AF01BE01CD01000C08956095709588
:1023E0008095909530954095509521953F4F4F4F52
:1023F0005F4F6F4F7F4F8F4F9F4F08950F93083060
:1024000090F0982F872F762F652F542F432F322F40
:1024100022270850F4CF220F331F441F551F661F79
:10242000771F881F991F0A95B2F70F91089597FBA0
:1024300010F8169400080F93083098F00850232FD6
:10244000342F452F562F672F782F892F902DF4CFBB
:1024500005949795879577956795579547953795FF
:1024600027950A95AAF70F9108952A0D3B1D4C1D3B
:102470005D1D6E1D7F1D801F911F08952A193B0948
:102480004C095D096E097F09800B910B08950024AA
:10249000A7FD00942A17300540055005600570051A
:1024A000800590050895EE0FFF1F0590F491E02D33
:1024B00009940F931F93CF93DF938230910510F40B
:1024C00082E090E0E0919303F091940320E030E00B
:1024D000A0E0B0E0309719F1408151810281138171
:1024E00048175907C8F08417950769F4109731F019
:1024F00012960C93129713961C9327C00093930384
:102500001093940322C02115310519F04217530787
:1025100018F49A01BD01EF01DF01F801DBCF2115AD
:102520003105F9F0281B390B2430310580F48A81FC
:102530009B816115710521F0FB019383828304C0A7
:102540009093940380939303FE01329644C0FE015E
:10255000E20FF31F8193919322503109398328832D
:102560003AC02091910330919203232B41F42091A2
:102570000201309103013093920320939103209143
:102580000001309101012115310541F42DB73EB70D
:102590004091040150910501241B350BE0919103FA
:1025A000F0919203E217F307A0F42E1B3F0B2817BC
:1025B000390778F0AC014E5F5F4F2417350748F0BC
:1025C0004E0F5F1F50939203409391038193919319
:1025D00002C0E0E0F0E0CF01DF91CF911F910F91B9
:1025E0000895CF93DF93009709F481C0FC013297DF
:1025F00013821282A0919303B0919403109781F4F7
:1026000020813181820F931F209191033091920399
:102610002817390751F5F0939203E093910367C0AF
:10262000ED0120E030E0CE17DF0740F44A815B8106
:102630009E0141155105F1F0EA01F5CFD383C28324
:1026400040815181840F951FC817D90759F488819B
:102650009981840F951F0296918380838A819B8143
:10266000938382832115310529F4F0939403E09339
:1026700093033DC0E901FB83EA8349915991C40F5B
:10268000D51FEC17FD0761F480819181840F951FA0
:102690000296E90199838883828193819B838A834F
:1026A000E0E0F0E012968D919C911397009719F05D
:1026B000FD01DC01F7CF8D919C9111979D012E5F5B
:1026C0003F4F820F931F209191033091920328175F
:1026D000390769F4309729F4109294031092930308
:1026E00002C013821282B0939203A0939103DF91F0
:1026F000CF910895A0E0B0E0E0E8F3E10C94710F11
:10270000EC01009721F4CB010E945912B4C0FC01E6
:10271000E60FF71F9C0122503109E217F30708F476
:10272000A8C0D9010D911C91119706171707B0F099
:102730000530110508F49BC0C80104978617970758
:1027400008F495C002501109061B170B0193119351
:102750006D937C93CF010E94F11289C05B01A01A96
:10276000B10A4C01800E911EA0919303B091940385
:10277000612C712CE12CF12C109709F446C08D913D
:102780009C911197A815B905B1F56C0142E0C40EF2
:10279000D11CCA14DB0478F14C018A189B0864012F
:1027A00042E0C40ED11C1296BC9012971396AC91C5
:1027B000B5E0CB16D10440F0B282A383918280822F
:1027C000D9016D937C9309C00E5F1F4F800F911F3D
:1027D000F90191838083EB2DFA2FE114F10431F09C
:1027E000D7011396FC93EE93129741C0F093940394
:1027F000E09393033CC06816790608F43C017D0120
:1028000012960D90BC91A02DB7CF8091910390911D
:10281000920388169906E1F466167706C8F480914B
:10282000000190910101009741F48DB79EB740914E
:10283000040150910501841B950BE817F907C8F4B2
:10284000F0939203E0939103F901718360830FC0C9
:10285000CB010E9459127C01009759F0A801BE01DA
:102860000E944514CE010E94F112C70104C0CE019E
:1028700002C080E090E0CDB7DEB7EEE00C948D0FA3
:1028800081E090E0F8940C945514FB01DC0102C047
:1028900001900D9241505040D8F70895FB01DC01A2
:0E28A00001900D920020E1F70895F894FFCF0B
:1028AE0000009503800000000000ED00F405840098
:1028BE003A01B5009300A700000000009D027002CF
:1028CE00CD024402680254024502000000000A03D1
:1028DE0008048103436F756C64206E6F7420666903
:1028EE006E6420424D453238302073656E736F72C0
:1028FE002100466F756E6420424D4532383020738C
:10290E00656E736F722120537563636573732E004A
:10291E00466F756E6420424D503238302073656EAE
:10292E00736F7221204E6F2048756D6964697479DA
:10293E0020617661696C61626C652E00466F756E02
:10294E006420554E4B4E4F574E2073656E736F720B
:10295E0021204572726F72210054656D703A20000D
:10296E00C2B000090948756D69646974793A20002E
:10297E002520524800090950726573737572653AC5
:10298E002000205061000D0A006E616E00696E66B7
:06299E00006F76660000E8
:107E0000112484B714BE81FFF0D085E080938100F7
:107E100082E08093C00088E18093C10086E0809377
:107E2000C20080E18093C4008EE0C9D0259A86E02C
:107E300020E33CEF91E0309385002093840096BBD3
:107E4000B09BFECF1D9AA8958150A9F7CC24DD24C4
:107E500088248394B5E0AB2EA1E19A2EF3E0BF2EE7
:107E6000A2D0813461F49FD0082FAFD0023811F036
:107E7000013811F484E001C083E08DD089C08234E0
:107E800011F484E103C0853419F485E0A6D080C0E4
:107E9000853579F488D0E82EFF2485D0082F10E0AE
:107EA000102F00270E291F29000F111F8ED06801E7
:107EB0006FC0863521F484E090D080E0DECF843638
:107EC00009F040C070D06FD0082F6DD080E0C81688
:107ED00080E7D80618F4F601B7BEE895C0E0D1E017
:107EE00062D089930C17E1F7F0E0CF16F0E7DF06D8
:107EF00018F0F601B7BEE89568D007B600FCFDCFD4
:107F0000A601A0E0B1E02C9130E011968C91119780
:107F100090E0982F8827822B932B1296FA010C0160
:107F200087BEE89511244E5F5F4FF1E0A038BF0790
:107F300051F7F601A7BEE89507B600FCFDCF97BE46
:107F4000E89526C08437B1F42ED02DD0F82E2BD052
:107F50003CD0F601EF2C8F010F5F1F4F84911BD097
:107F6000EA94F801C1F70894C11CD11CFA94CF0C13
:107F7000D11C0EC0853739F428D08EE10CD085E9AC
:107F80000AD08FE07ACF813511F488E018D01DD067
:107F900080E101D065CF982F8091C00085FFFCCF94
:107FA0009093C60008958091C00087FFFCCF809118
:107FB000C00084FD01C0A8958091C6000895E0E648
:107FC000F0E098E1908380830895EDDF803219F02E
:107FD00088E0F5DFFFCF84E1DECF1F93182FE3DFCA
:107FE0001150E9F7F2DF1F91089580E0E8DFEE27F6
:047FF000FF270994CA
:027FFE00040479
:0400000300007E007B
:00000001FF