:100000000C9472000C949A000C949A000C949A0030
:100010000C949A000C949A000C949A000C949A00F8
:100020000C949A000C949A000C949A000C949A00E8
:100030000C949A000C949A000C949A000C949A00D8
:100040000C946A010C949A000C94AB0D0C94850DE1
:100050000C949A000C949A000C949A000C949A00B8
:100060000C949A000C949A007C3C3E5E2B3D3F2FF2
:100070005B5D3B2C2A225C000000000800020100AE
:1000800000030407000000000000000073746172A8
:10009000742053440063616E6E6F742073746172D8
:1000A000742053440000000000250028002B0000AD
:1000B000000000240027002A0004040404040404AF
:1000C0000402020202020203030303030301020407
:1000D00008102040800102040810200102040810CA
:1000E00020002A1311241FBECFEFD8E0DEBFCDBF02
:1000F00024E0A8E8B1E001C01D92AA3EB207E1F7F2
:1001000011E0A0E0B1E0EEEEF9E202C005900D9240
:10011000A838B107D9F710E0C2E7D0E004C02197B2
:10012000FE010E94AD13C137D107C9F70E94B91073
:100130000C94F5140C940000FC01918D228D892FF4
:1001400090E0805C9F4F821B91098F7399270895DF
:1001500080E090E0892B29F00E940C0D81110C9415
:1001600000000895DC015996ED91FC915A97309763
:10017000B9F083899489A589B689428553856485B8
:100180007585841B950BA60BB70B811520E892078C
:10019000A105B10538F08FEF9FE7A0E0B0E008952A
:1001A00080E090E00895CF93DF931F92CDB7DEB744
:1001B0006983DC01ED91FC910280F381E02D41E047
:1001C00050E0BE016F5F7F4F09950F90DF91CF9197
:1001D0000895089580E090E008950E94D414FC01F1
:1001E000848DDF01A80FB11DA35ABF4F2C91848DC0
:1001F00090E001968F739927848FA689B7892C93F5
:10020000A089B1898C91837080648C93938D848D47
:10021000981306C00288F389E02D80818F7D80834A
:10022000089590E0FC01E858FF4F2491FC01E3534E
:10023000FF4F3491FC01E754FF4FE491EE2309F4A2
:100240003CC0222339F1233091F038F42130A9F059
:10025000223001F584B58F7D12C0273091F028300F
:10026000A1F02430B9F4809180008F7D03C080918B
:1002700080008F77809380000DC084B58F7784BD18
:1002800009C08091B0008F7703C08091B0008F7D4E
:100290008093B000F0E0EE0FFF1FEB55FF4FA591EC
:1002A000B4919FB7F894611104C08C9130953823B4
:1002B00002C0EC913E2B3C939FBF08952FB7F8945A
:1002C00060919401709195018091960190919701B0
:1002D0002FBF08951F920F920FB60F9211242F93E4
:1002E0003F938F939F93AF93BF938091940190918D
:1002F0009501A0919601B09197013091930123E06F
:10030000230F2D3720F40196A11DB11D05C026E84D
:10031000230F0296A11DB11D209393018093940198
:1003200090939501A0939601B093970180918F01CE
:1003300090919001A0919101B09192010196A11D1F
:10034000B11D80938F0190939001A0939101B09380
:100350009201BF91AF919F918F913F912F910F90FB
:100360000FBE0F901F9018958FB7F8948091890158
:100370008FBF089561E0FC0184810E94110180918A
:10038000880181111092880108958EBD00000DB47E
:1003900007FEFDCF8EB508958FEF0C94C5010F9326
:1003A0001F93CF93DF93EB010E945E018B010E94AC
:1003B000CC018F3F49F00E945E01601B710B6C17EE
:1003C0007D07A8F380E001C081E0DF91CF911F910C
:1003D0000F910895CF93DF93EC018E81882389F0EC
:1003E0008F8198859C012F5F3F4F38872F83823004
:1003F000924018F40E94CC01F3CFCE010E94BA01C2
:100400001E82DF91CF9108958CBD9DBD0895CF933D
:10041000DF93EC0180918801811109C081E0809314
:10042000880180918004909181040E94040260E020
:100430008C81DF91CF910C9411018F929F92AF929A
:10044000BF92FF920F931F93CF93DF93EC01F62E91
:1004500049015A010E94EA01CE010E9407026CE2A2
:1004600071E0CE010E94CF018F2D80640E94C501F2
:1004700008E110E0D501C401002E04C0B695A7958F
:10048000979587950A94D2F70E94C50108501109E3
:10049000083F8FEF180771F7FF2029F088E0F81266
:1004A00004C087E803C085E901C08FEF0E94C50141
:1004B00010E00E94CC018A8787FF04C01F3F11F023
:1004C0001F5FF7CFDF91CF911F910F91FF90BF90EA
:1004D000AF909F908F900895AF92BF92CF92DF928E
:1004E000EF92FF920F931F93CF93DF93EC0169017B
:1004F000C801820F931F8130924008F070C08E8136
:10050000882371F088819981AA81BB81841795071E
:10051000A607B70729F48F819885C816D906B0F5C4
:10052000488359836A837B838B85833039F089E0E4
:10053000440F551F661F771F8A95D1F79A01AB01AB
:1005400061E1CE010E941D02882319F083E08D83B2
:1005500046C00E945E015B010E94CC018A878F3FEA
:1005600049F40E945E016A197B096D327140A0F363
:100570008FE003C08E3F31F08DE08D83CE010E946D
:10058000BA012DC018861F8281E08E838F819885E5
:100590008C159D0540F40E94CC018F8198850196B1
:1005A00098878F83F3CF6701E00EF11EEC14FD04F2
:1005B00031F00E94CC01F60181936F01F7CF8F815A
:1005C0009885080F191F18870F838985882319F0CC
:1005D0000115124048F0CE010E94EA0105C0CE018B
:1005E0000E94BA0180E001C081E0DF91CF911F91AC
:1005F0000F91FF90EF90DF90CF90BF90AF90089554
:10060000EF92FF920F931F93CF93DF93EC01790149
:10061000411551056105710511F482E13CC08B85DE
:10062000833039F089E0440F551F661F771F8A9584
:10063000D1F79A01AB0168E1CE010E941D02882327
:1006400011F084E028C08EEF0E94C50187018EEF73
:10065000F81AF80181918F010E94C501E016F10698
:10066000C1F78FEF0E94C5018FEF0E94C5010E9464
:10067000CC018A878F71853031F081E18D83CE0185
:100680000E94BA0109C068E572E0CE010E94CF0164
:10069000811107C085E18D83CE010E94BA0180E0FF
:1006A00014C020E030E0A9016DE0CE010E941D02DF
:1006B000811109C00E94CC01811105C0CE010E94A8
:1006C000BA0181E002C084E1E6CFDF91CF911F91B2
:1006D0000F91FF90EF90089580918A018823A9F1EE
:1006E000409100015091010160910201709103015C
:1006F00029E931E08091990390919A030E940003C7
:10070000811102C080E0089540918B0150918C01CD
:1007100060918D0170918E01411551056105710542
:1007200091F029E931E08091990390919A030E9418
:100730000003882339F310928B0110928C011092E0
:100740008D0110928E0110928A0181E008958F929E
:100750009F92AF92BF92EF92FF920F931F93CF930E
:100760004B015C01C42F8091000190910101A09187
:100770000201B091030188159905AA05BB0501F195
:100780000E946C03811102C080E020C089E9E82E3C
:1007900081E0F82E00E012E020E030E0B501A40195
:1007A0008091990390919A030E946C02882361F3CF
:1007B0008092000190920101A0920201B092030187
:1007C00080918A01C82BC0938A0181E0CF911F914B
:1007D0000F91FF90EF90BF90AF909F908F900895F2
:1007E0004F925F926F927F928F929F92AF92BF9241
:1007F000CF92DF92EF92FF920F931F93CF93DF93ED
:10080000EC01423051056105710510F480E078C0BB
:1008100089859A85AB85BC850196A11DB11D84177C
:100820009507A607B70790F3CB88DC88ED88FE888C
:100830008F89803129F4BB27A72F962F852F09C0D8
:10084000DB01CA01E7E0B695A79597958795EA95EC
:10085000D1F7480159012A013B01C80ED91EEA1EF1
:10086000FB1E8091000190910101A0910201B091C5
:100870000301C816D906EA06FB0681F48F89803188
:10088000A9F4B301A201552766277727440F551F06
:10089000FA01E756FE4F9182808219C040E0C701FD
:1008A000B6010E94A7038111E9CFB0CFB301A20125
:1008B0004F77552766277727440F551F440F551F3D
:1008C000FA01E756FE4F80829182A282B382809124
:1008D0008A01816080938A018A89823080F08D81CB
:1008E0009E81AF81B885C80ED91EEA1EFB1EC0923C
:1008F0008B01D0928C01E0928D01F0928E0181E00B
:10090000DF91CF911F910F91FF90EF90DF90CF90EB
:10091000BF90AF909F908F907F906F905F904F901F
:1009200008958F929F92AF92BF92CF92DF92EF92F3
:10093000FF920F931F93CF93DF93FC0181859285E4
:10094000A385B4850196A11DB11D84179507A6073F
:10095000B70710F480E05BC083889488A588B688C8
:100960008789803129F4BB27A72F962F852F09C0AF
:10097000DB01CA01C7E0B695A79597958795CA95FB
:10098000D1F7E9016A017B018F01BC01CD01680D3E
:10099000791D8A1D9B1D8090000190900101A090FF
:1009A0000201B0900301681579058A059B0591F451
:1009B000F80187898031A1F4DD24EE24FF24C601EB
:1009C000880F991FFC01E756FE4F80819181A0E0BE
:1009D000B0E018C040E00E94A7038111E9CFBACF70
:1009E000E894C7F8DD24EE24FF24C601880F991F80
:1009F000880F991FFC01E756FE4F80819181A281EB
:100A0000B381BF7088839983AA83BB8381E0DF9120
:100A1000CF911F910F91FF90EF90DF90CF90BF90FB
:100A2000AF909F908F9008958F929F92AF92BF92B8
:100A3000CF92DF92EF92FF920F931F93CF93DF93AA
:100A4000EC018D81811102C080E078C00B891C8986
:100A50002D893E890417150726073707A8F36A0171
:100A60007B01823029F4CA86DB86EC86FD860DC0C8
:100A7000C114D104E104F10451F41E821F821886CE
:100A800019861A861B861C861D8681E057C08A84BB
:100A90009B84AC84BD84EB8DFC8D258530E0275F85
:100AA0003F4FB501A4014150510961097109022E5E
:100AB00004C076956795579547950A94D2F7D70164
:100AC000C6010197A109B10904C0B695A7959795EC
:100AD00087952A95D2F784179507A607B70720F0C0
:100AE00089288A288B2871F44F89588D698D7A8DD1
:100AF0004E835F83688779874C015D018E010A5FB1
:100B00001F4F16C0841B950BA60BB70BF5CF4E815C
:100B10005F816885798598018B8D9C8D0E949104F9
:100B200091E0891A9108A108B108882309F48CCFB3
:100B300081149104A104B10451F795CFDF91CF91B5
:100B40001F910F91FF90EF90DF90CF90BF90AF90EB
:100B50009F908F9008953F924F925F926F927F92F5
:100B60008F929F92AF92BF92CF92DF92EF92FF92BD
:100B70000F931F93CF93DF93CDB7DEB72C970FB6AC
:100B8000F894DEBF0FBECDBF5C01DC015B968D909B
:100B90009C905C971696CD90DD90ED90FC90199707
:100BA000C114D104E104F10439F0BFEFCB1ADB0A20
:100BB000EB0AFB0A312C07C0F401C080D180E2802F
:100BC000F38033243394F40181859285A385B48521
:100BD0009C01AD012F5F3F4F4F4F5F4F29873A87F1
:100BE0004B875C87260137011D821E821F82188673
:100BF000F40181859285A385B4852D813E814F8145
:100C00005885281739074A075B0708F063C08985AC
:100C10009A85AB85BC858C159D05AE05BF0550F446
:100C200082E0C82ED12CE12CF12C92E0492E512CDF
:100C3000612C712C9E012F5F3F4FB701A601C401AB
:100C40000E949104882309F445C089819A81AB816F
:100C5000BC81892B8A2B8B2B41F0260137019FEF1A
:100C6000491A590A690A790A05C0C414D504E60468
:100C7000F70491F02D813E814F8158852F5F3F4FC2
:100C80004F4F5F4F2D833E834F8358873FEFC31AEB
:100C9000D30AE30AF30AACCF0FEF1FEF2FEF3FE0C9
:100CA000B301A201C4010E94F003882399F0D50189
:100CB00016964D915D916D917C9119974115510555
:100CC0006105710549F093018201C4010E94F0039E
:100CD000811102C080E02AC0D50116964D925D9226
:100CE0006D927C921997332051F0D301C201019685
:100CF000A11DB11DF40180839183A283B383F5010B
:100D00008789908DA18DB28D892B8A2B8B2B69F4CD
:100D1000D50157964D925D926D927C925A9714969A
:100D20008C911497806814968C9381E02C960FB662
:100D3000F894DEBF0FBECDBFDF91CF911F910F9111
:100D4000FF90EF90DF90CF90BF90AF909F908F90EB
:100D50007F906F905F904F903F9008954F925F9279
:100D60006F927F92AF92BF92CF92DF92EF92FF92FB
:100D70000F931F93CF93DF931F92CDB7DEB7FC0184
:100D80002581222309F4C1C0848180FFBEC08389EC
:100D90009489A589B68942845384648475848415B2
:100DA0009505A605B70509F4B0C06F015201F1E041
:100DB000BF22D6015B968D919C915C97B301A201F5
:100DC00039E076956795579547953A95D1F7223052
:100DD00071F4FC01828D938DA48DB58D8A019B01E8
:100DE000080F191F2A1F3B1FC901B8014AC0DC01A7
:100DF00014961C9111501423A114B104F9F411118B
:100E00001DC045284628472851F4F6018789908D52
:100E1000A18DB28D86839783A087B1870FC0D6013D
:100E200016964D915D916D917C91199796012A5F6F
:100E30003F4F0E949104882309F467C0F601238D77
:100E4000348D86819781A085B1850297A109B1096A
:100E5000AC01BD01F901058404C0440F551F661F94
:100E6000771F0A94D2F786859785A089B189840F68
:100E7000951FA61FB71FBC01CD01610F711D811DFC
:100E8000911DD60114962C9126FF0DC040900001B3
:100E900050900101609002017090030146165706C0
:100EA0006806790699F440E00E94A703882369F157
:100EB000F501E756FE4FDE0111969F012F5F3F4F70
:100EC0002E173F0799F081918D93FACFFE0131964D
:100ED0007F0101E010E09501AB01BC018091990315
:100EE00090919A030E946C02882379F0F601828522
:100EF0009385A485B5850196A11DB11D8287938731
:100F0000A487B587898190E002C08FEF9FEF0F9093
:100F1000DF91CF911F910F91FF90EF90DF90CF90D5
:100F2000BF90AF907F906F905F904F900895FC01BD
:100F3000818D928D009711F00C94AE068FEF9FEF8C
:100F400008950F931F93CF93DF93FC01818D928DB2
:100F50000097B9F0EF010E94AE068C010F3F8FEFB2
:100F6000180791F0898D9A8DFC014285538564851F
:100F7000758541505109610971090E941405C80124
:100F800005C080E090E002C08FEF9FEFDF91CF912E
:100F90001F910F910895CF93DF93EC018D818823EA
:100FA00079F18C8187FF28C06E857F858889998932
:100FB00041E00E94A703882319F1EA8980E2E89FB3
:100FC000F0011124E756FE4F3097D1F08D81823029
:100FD00040F48B899C89AD89BE89848F958FA68FBB
:100FE000B78F8F89988DA98DBA8D938F828FB58B8E
:100FF000A48B8C818F778C83DF91CF910C946C03C1
:1010000080E0DF91CF9108958F929F92AF92BF922F
:10101000CF92DF92EF92FF920F931F93CF93DF93C4
:1010200000D000D0CDB7DEB77C0180E2689FF00130
:101030001124E756FE4F9385917121F0842F82741D
:1010400009F08FC0142FD70152966C93529740919C
:1010500000015091010160910201709103011E96FF
:101060004D935D936D937C9351974489558960E0CE
:1010700070E0BA0155274427828D938DA0E0B0E03F
:10108000482B592B6A2B7B2BD70157964D935D9399
:101090006D937C935A978385887159F4848D958DCF
:1010A000A68DB78DF701838B948BA58BB68B81E0D2
:1010B00012C0803109F055C097012D5E3F4FD70116
:1010C0005B968D919C915C970E94640E882309F435
:1010D00048C084E0F7018583812F8F70D701149673
:1010E0008C931497F70116821782108611861A9630
:1010F0001D921D921D921C921D9716FF34C01596CD
:101100008C91813071F511FF2CC0F701438954890E
:1011100065897689452B462B472B09F461C040E051
:1011200050E0BA01C7010E9414058823D1F0F701ED
:101130008788908CA18CB28CC38CD48C82E090E098
:10114000A0E0B0E0F60180839183A283B3839E0187
:101150002F5F3F4FB501A401C6010E949104811188
:1011600004C080E03DC081E03BC000E010E0980199
:10117000B501A401C6010E94F003882391F3898080
:101180009A80AB80BC80D60157968C91803129F033
:1011900088EF9FEFAFEFBFE004C088EF9FEFA0E0C4
:1011A000B0E088169906AA06BB0688F2D7015796C2
:1011B0001D921D921D921C925A97F701138A148A50
:1011C000158A168A848180688483C7010E94CB07B0
:1011D000882339F240E050E0BA01C7010E941405AB
:1011E0000F900F900F900F90DF91CF911F910F9163
:1011F000FF90EF90DF90CF90BF90AF909F908F9037
:1012000008952F923F924F925F926F927F928F92AA
:101210009F92AF92BF92CF92DF92EF92FF920F9385
:101220001F93CF93DF93CDB7DEB72B970FB6F8940C
:10123000DEBF0FBECDBF7C01FE013196CE010C9604
:101240006F0130E23193E817F907E1F7DA0130E096
:1012500087E09D91992331F19E3231F48A3009F46F
:101260006BC138E08AE0F5CFE8E6F0E04491442332
:1012700021F031969413FACF5FC1831708F45CC153
:101280004FED490F4E3508F057C141E0430FF601CD
:10129000E30FF11D3FE9390F3A3108F49052908382
:1012A000342FD7CF8981803209F446C1322E8B0189
:1012B000DB015B968D919C915C97F701948F838FF6
:1012C00016961D921D921D921C921997FB01128673
:1012D000138614861586B12CF80182859385A48522
:1012E000B585438954896589768984179507A6074A
:1012F000B70708F05BC025E0B695A7959795879549
:101300002A95D1F7F82FFF70AF2ED80115968C9142
:10131000823008F411C1C8010E94AE0697FD0CC1CD
:10132000F80182859385A485B5854F96A11DB11DD1
:1013300082879387A487B587F0E2AF9EB00111241E
:1013400067567E4F6115710509F4F6C0DB018C917B
:10135000882319F0853EC1F4F1C0B1100EC0F70129
:10136000A28A8091000190910101A0910201B091A7
:10137000030186879787A08BB18BDB018C91882333
:1013800099F0BB24B394A8CF4BE050E0C6010E9473
:10139000D914892B09F0A0CF832D8073803309F4F1
:1013A000CBC0432D6A2DC4C0BB24B394832D82715E
:1013B000823109F0C1C0BB20C1F0F7016685778595
:1013C0008089918941E00E94A703882309F4B4C071
:1013D000D70152968C91B0E28B9FC00111248756A1
:1013E0009E4F009709F078C0A7C0F8018581823030
:1013F00009F4A2C0C8010E94AB05882309F49CC06F
:10140000D8015B96ED91FC915C9716968D909D901E
:10141000AD90BC901997B2E08B1A9108A108B10861
:10142000058404C0880C991CAA1CBB1C0A94D2F722
:1014300086859785A089B189880E991EAA1EBB1E34
:101440002480E1E08E1A9108A108B108222009F158
:1014500024013501420C511C611C711C0E946C035B
:10146000882309F469C0E9E9F1E0119223E0E93940
:10147000F207D9F7409200015092010160920201F7
:101480007092030180918A01816080938A012A947D
:10149000DDCFD8015B96ED91FC915C9780E092E006
:1014A000A0E0B0E0058404C0880F991FAA1FBB1FED
:1014B0000A94D2F7F8014389548965897689840FA3
:1014C000951FA61FB71F838B948BA58BB68BD70157
:1014D00052961C9289E991E020E2FC0111922A9532
:1014E000E9F72BE0F601DC0101900D922A95E1F776
:1014F00021E238E2DC0151963C932E93509740E074
:1015000058E01F965C934E931E9753963C932E93F0
:10151000529759963C932E93589757965C934E93B7
:1015200056970E946C03882339F0432DF701628996
:10153000C7010E94040805C080E003C0B11021CF9C
:101540000ECF2B960FB6F894DEBF0FBECDBFDF9146
:10155000CF911F910F91FF90EF90DF90CF90BF90B0
:10156000AF909F908F907F906F905F904F903F9043
:101570002F900895CF93DF93EC010E94CB0788232F
:1015800011F01D8281E0DF91CF910895FC01818DE2
:10159000928D009711F00C94CB0708952F923F92F3
:1015A0004F925F926F927F928F929F92AF92BF9273
:1015B000CF92DF92EF92FF920F931F93CF93DF931F
:1015C00000D000D0CDB7DEB78C015B011A01DC0181
:1015D00015968C9115978130C9F414968C9181FFE2
:1015E00015C082FF1DC0F801438954896589768939
:1015F00082859385A485B58584179507A607B707C7
:1016000079F0C8010E94140581110AC081E090E0C0
:10161000D80113969C938E93129780E090E036C188
:10162000610183C05B968D919C915C97FC017480F5
:101630002FEF270D2A013B0139E0769467945794E8
:1016400047943A95D1F7722E74207A01F1E0FF2287
:10165000772009F476C080E092E08E199F09460158
:101660008C159D0508F44C01D8015B962D913C9199
:101670005C9716968D919D910D90BC91A02D02972F
:10168000A109B109F901058404C0880F991FAA1F97
:10169000BB1F0A94D2F74685578560897189840FEC
:1016A000951FA61FB71F9C01AD01270D311D411DC0
:1016B000511D29013A01811432E0930609F088C0D6
:1016C0008091000190910101A0910201B09103016C
:1016D000481659066A067B0659F48FEF9FEFDC0126
:1016E0008093000190930101A0930201B093030144
:1016F0009501B301A2018091990390919A030E94F0
:101700000003882309F482CF9EEFB91AC818D908BC
:10171000F80182859385A485B585880D991DA11D45
:10172000B11D82879387A487B587D8011A964D91FA
:101730005D916D917C911D97C114D10409F072CF18
:1017400087C0E114F10409F086CF16964D915D91A2
:101750006D917C911997411551056105710559F4F9
:1017600057968D919D910D90BC91A02D0097A1054C
:10177000B10541F521C09E012F5F3F4F0E949104AA
:10178000882309F44BCF89819A81AB81BC81F80110
:10179000238D348DF9012789203129F048EF5FEF3F
:1017A0006FEF7FE004C048EF5FEF60E070E0841708
:1017B0009507A607B70730F0C8010E94AB05811155
:1017C0004ACF24CFF80186839783A087B18743CF80
:1017D000E114F10429F5D8011A964D915D916D91AE
:1017E0007C911D9753968D919D910D90BC91A02D4C
:1017F000481759076A077B0798F00E946C038823F3
:1018000009F404CF4092000150920101609202015C
:101810007092030180918A01816080938A0108C0DF
:1018200041E0C301B2010E94A703882309F4EECE70
:10183000D501F701E756FE4F9F01280D391D2E17E0
:101840003F0719F08D918193FACFA80CB91C5ECF98
:10185000F80183899489A589B68984179507A60715
:10186000B70738F4438B548B658B768B8481806803
:101870008483F801848183FD02C0C10107C0C801CF
:101880000E94CB07882309F4C1CEF7CF0F900F90A9
:101890000F900F90DF91CF911F910F91FF90EF90DC
:1018A000DF90CF90BF90AF909F908F907F906F9080
:1018B0005F904F903F902F900895CF93DF931F92AA
:1018C000CDB7DEB7698341E050E0BE016F5F7F4F67
:1018D0000E94CE0A0F90DF91CF910895CF93DF93AE
:1018E000EC01898D9A8D009739F481E090E09B831B
:1018F0008A8380E090E00BC0FC01138212820E9478
:10190000CE0AE98DFA8D22813381232B71F7DF9185
:10191000CF910895FC01DB0112968D919C91139754
:101920009383828380E291E09183808314968C91EB
:101930001497848315968C911597858316964D91EF
:101940005D916D917C91199746835783608771876C
:101950001A964D915D916D917C911D9742875387A9
:10196000648775871E964D915D916D917C9151971D
:1019700046875787608B718B52968C915297828BDA
:1019800053964D915D916D917C915697438B548BFD
:10199000658B768B57964D915D916D917C915A97A1
:1019A000478B508F618F728F5B968D919C915C9766
:1019B000948F838F0895FC01538D448D252F30E043
:1019C000842F90E0821B930B541710F0CF9608954C
:1019D00001970895FC01918D828D981761F0828D99
:1019E000DF01A80FB11D5D968C91928D9F5F9F7353
:1019F000928F90E008958FEF9FEF0895FC01918DF5
:101A0000828D981731F0828DE80FF11D858D90E061
:101A100008958FEF9FEF08958BE993E00E949C005B
:101A200021E0892B09F420E0822F0895EF92FF92A4
:101A30000F931F93CF93DF93EC0181E0888F9B8DF1
:101A40008C8D981305C0E889F989808185FD26C0B1
:101A5000F62E0B8D10E00F5F1F4F0F731127E02E36
:101A60008C8DE8120CC00FB607FCFACFE889F98913
:101A7000808185FFF5CFCE010E94EF00F1CF8B8DE5
:101A8000FE01E80FF11DE35AFF4FF0829FB7F89473
:101A90000B8FEA89FB89808180620AC09FB7F89426
:101AA000EE89FF896083E889F98980818370806489
:101AB00080839FBF81E090E0DF91CF911F910F91D4
:101AC000FF90EF900895CF93DF93EC01888D8823EA
:101AD000C9F0EA89FB89808185FD05C0A889B9899B
:101AE0008C9186FD0FC00FB607FCF5CF808185FF76
:101AF000F2CFA889B9898C9185FFEDCFCE010E94E4
:101B0000EF00E7CFDF91CF9108951F920F920FB6AC
:101B10000F9211242F933F934F935F936F937F9373
:101B20008F939F93AF93BF93EF93FF938BE993E0D2
:101B30000E94EF00FF91EF91BF91AF919F918F9124
:101B40007F916F915F914F913F912F910F900FBEB9
:101B50000F901F9018951F920F920FB60F9211249D
:101B60002F938F939F93EF93FF93E091AB03F091AB
:101B7000AC038081E091B103F091B20382FD12C009
:101B800090818091B4038F5F8F732091B50382178A
:101B900051F0E091B403F0E0E556FC4F958F80934F
:101BA000B40301C08081FF91EF919F918F912F919C
:101BB0000F900FBE0F901F901895CF92DF92EF926B
:101BC000FF920F931F93CF93DF936C017A018B01E8
:101BD000C0E0D0E0CE15DF0581F0D8016D918D0118
:101BE000D601ED91FC910190F081E02DC60109959F
:101BF000892B11F02196EECF7E01C701DF91CF91A5
:101C00001F910F91FF90EF90DF90CF900895EBE937
:101C1000F3E0A089B18982E08C93A485B5851C92FC
:101C2000A685B7858FEC8C93108EA489B58986E044
:101C30008C93A289B3898C9180618C93A289B3899A
:101C40008C9188608C93A289B3898C9180688C93E5
:101C50000288F389E02D80818F7D80830895EF9243
:101C6000FF920F931F93CF93DF93EC017B018A01C7
:101C70001B821A8288EE93E0A0E0B0E08C839D8303
:101C8000AE83BF838AE491E0998388838DE190E0FD
:101C90000E94B3139A8F898F009779F02DE1F70195
:101CA000DC0101900D922A95E1F74CE050E0B8017B
:101CB000CE010C960E94E614188EDF91CF911F91F1
:101CC0000F91FF90EF9008954F925F926F927F92E5
:101CD000AF92BF92CF92DF92EF92FF920F931F933A
:101CE000CF93DF9300D000D0CDB7DEB78C0149830E
:101CF0005A836B837C835901C12CD12C7601412CF2
:101D000082E0582E612C712C49815A816B817C8133
:101D10009E012F5F3F4FC8010E949104882351F11B
:101D2000D301C201F801058404C0880F991FAA1FBE
:101D3000BB1F0A94D2F7C80ED91EEA1EFB1E4981AA
:101D40005A816B817C818789803129F088EF9FEFF0
:101D5000AFEFBFE004C088EF9FEFA0E0B0E048170E
:101D600059076A077B0780F2F501C082D182E282BF
:101D7000F38281E00F900F900F900F90DF91CF9141
:101D80001F910F91FF90EF90DF90CF90BF90AF9099
:101D90007F906F905F904F900895CF93DF93FC01F9
:101DA0002581222311F080E049C0EC018091A50437
:101DB0008031C1F482E08583178A108E118E128ED5
:101DC0008091A6049091A704A0E0B0E025E0880FE0
:101DD000991FAA1FBB1F2A95D1F7838B948BA58BC4
:101DE000B68B19C08032F9F683E085834091A80450
:101DF0005091A9046091AA047091AB04478B508F55
:101E0000618F728F9F012D5E3F4F8EE894E00E949C
:101E1000640E882341F28EE894E09C8F8B8F81E0E2
:101E20008C831E821F82188619861A861B861C8642
:101E30001D861E861F86188A198A1A8ADF91CF91FD
:101E400008958F929F92AF92BF92CF92DF92EF92BE
:101E5000FF92CF93DF93C82F82E894E090939A0388
:101E600080939903CC2369F1C53010F080E00CC158
:101E700040E060E070E0CB010E94A7038823B1F34B
:101E800020E1C29FC001112487579E4FFC01E254FC
:101E9000FE4F20812F7751F73C964081518162811E
:101EA0007381443651056105710500F33497C08094
:101EB000D180E280F380C114D104E104F10421F463
:101EC000D5CFC12CD12C760140E0C701B6010E94CC
:101ED000A703882359F28091A4019091A50181154F
:101EE000924021F6A091A901AA2309F4BFCF6091E5
:101EF000A7017091A8016115710509F4B7CF209170
:101F0000A601222309F4B2CFA093A0042093920447
:101F100080E030E041E050E0C82FFA01082E02C016
:101F2000EE0FFF1F0A94E2F72E173F0739F08F5F7D
:101F3000C83091F789E080939B0498CF80939B04ED
:101F40002091AF013091B0012115310519F040E029
:101F500050E008C02091BD013091BE014091BF0109
:101F60005091C001209393043093940440939504BE
:101F70005093960446015701860E971EA11CB11C72
:101F80008092A1049092A204A092A304B092A4040F
:101F9000E091AA01F091AB01F093A704E093A604AD
:101FA000B0E00E949313860E971EA81EB91E809261
:101FB000A8049092A904A092AA04B092AB0485E070
:101FC000EE0FFF1F8A95E1F7E150FE4FEF2FFF273D
:101FD000E6958E0E9F1EA11CB11C80929C049092CF
:101FE0009D04A0929E04B0929F042091AC01309178
:101FF000AD012115310521F0A90160E070E008C0B4
:102000004091B9015091BA016091BB017091BC013E
:10201000D701C60188199909AA09BB09840F951F20
:10202000A61FB71F04C0B695A79597958795CA9523
:10203000D2F78093970490939804A0939904B09357
:102040009A04853F2FE09207A105B10510F48CE0BA
:1020500018C0853F9F4FA105B10510F480E111C064
:102060008091C5019091C601A091C701B091C801AE
:102070008093A8049093A904A093AA04B093AB04FE
:1020800080E28093A50481E0DF91CF91FF90EF90F3
:10209000DF90CF90BF90AF909F908F90089590E089
:1020A000FC01E353FF4F2491FC01E754FF4F84915F
:1020B000882399F090E0880F991FFC01E155FF4FAC
:1020C000A591B491FC01EB55FF4F859194918FB789
:1020D000F894EC91E22BEC938FBF08956115710594
:1020E00079F0FB0101900020E9F73197AF01461B21
:1020F000570BDC01ED91FC910280F381E02D0994F6
:1021000080E090E008950F931F93CF93DF938C01AD
:10211000C0E0D0E0F801EC0FFD1F6491662341F0B0
:102120008BE993E00E94160D892B11F02196F2CFD6
:1021300067E671E08BE993E00E946E108C0F9D1FA3
:10214000DF91CF911F910F9108950F931F93CF931C
:10215000DF93EC010E946E108C0167E671E0CE0106
:102160000E946E10800F911FDF91CF911F910F91F0
:102170000895CF93DF93CDB7DEB7C257D1090FB61D
:10218000F894DEBF0FBECDBF789484B5826084BD65
:1021900084B5816084BD85B5826085BD85B581606B
:1021A00085BD80916E00816080936E0010928100E9
:1021B00080918100826080938100809181008160A4
:1021C0008093810080918000816080938000809165
:1021D000B10084608093B1008091B00081608093F1
:1021E000B00080917A00846080937A0080917A00B8
:1021F000826080937A0080917A00816080937A0077
:1022000080917A00806880937A001092C1001092C9
:102210007C0410927D0410927E0410927F04109230
:102220003A0410923B0410923C0410923D040E9428
:102230005E016B017C014B015C0188EB880E8BE039
:10224000981EA11CB11C0E945E016C157D058E05B7
:102250009F0528F086169706A806B906A0F78BE911
:1022600093E090937B0480937A040E94070E0E946F
:102270005E0160933A0470933B0480933C04909316
:102280003D0468E571E080917A0490917B040E949E
:102290006E100E945E016B017C014B015C018AE0C3
:1022A000880E911CA11CB11C0E945E016C157D055D
:1022B0008E059F0528F086169706A806B906A0F792
:1022C00081E080934E040E94070E8091B104882320
:1022D00021F08CEA94E00E94BA0A10928D041092C8
:1022E0008B04109288041092870485E08093860402
:1022F0000E945E018B01809186040E944F1061E074
:10230000809186040E941101FFB6F8948091980193
:10231000811124C0E3ECF0E08491E7EDF0E09491CA
:10232000E82FF0E0EE0FFF1FE155FF4FA591B491AC
:10233000EC91E92321F461E08AE00E9411018AE036
:102340000E944F108CB580618CBD8CB580648CBDB3
:102350008DE00E944F108BE00E944F1080919801F9
:102360008F5F80939801FFBE82E580938004109276
:10237000810480918004909181040E9404022AE0EB
:10238000F22E8FEF0E94C501FA94F110FACF82E885
:1023900094E00E94070220E030E0A90160E082E8BA
:1023A00094E00E941D02F82E80938C0481E0F816C0
:1023B00049F00E945E01601B710B613D774058F34C
:1023C00081E056C02AEA31E040E050E068E082E86F
:1023D00094E00E941D0282FF03C0F0928D0410C0A1
:1023E00094E0F92E0E94CC0180938C04FA94F110B1
:1023F000F9CF8A3A11F082E03BC082E080938D04ED
:1024000080918D04823021F0C12CD12C760105C041
:10241000C12CD12CE12C80E4F82E20E030E0A90181
:1024200067E382E894E00E941D02A701960169E239
:1024300082E894E00E941D0280938C04882349F076
:102440000E945E01601B710B613D774030F388E0B4
:102450000FC080918D04823001F520E030E0A901A9
:102460006AE382E894E00E941D02882341F086E03E
:102470008093870482E894E00E94BA0128C00E94F9
:10248000CC01807C803C19F483E080938D040E9411
:10249000CC010E94CC010E94CC0182E894E00E9411
:1024A000BA0180E5809380041092810481E00E944B
:1024B000210F882339F08CEA94E00E94CD0E882306
:1024C00031F00AC080E00E94210F8111F4CF85E92C
:1024D00090E00E948310FFCF8CE890E00E94831070
:1024E0001C821B8200E211E01A8309831E82CE0146
:1024F00001960E94CD0EBE016F5F7F4FCE01CB963D
:102500000E948A0C19A218A21F8F0E8F1BA221965F
:102510008FAD219781111CC06C961FAE1EAE6C97BB
:1025200088EE93E0A0E0B0E0A0968CAF9DAFAEAF98
:10253000BFAFA0978AE491E06A969FAF8EAF6A978B
:10254000E3961FAE1EAEE397A5961FAEA59729C0D2
:1025500027E14AE651E0BE01655C7F4FCE014E9611
:102560000E9401098823C1F2CE01CB960E94BA0ACB
:1025700049A95AA96BA97CA9CE014E960E941405BF
:10258000BE01625E7F4FCE0101960E948A0C4AE630
:1025900051E0BE016F5F7F4FCE01885A9F4F0E946E
:1025A0002F0E6C968EAD9FAD6C979093CE0480935A
:1025B000CD04A0968CAD9DADAEADBFADA097809380
:1025C000CF049093D004A093D104B093D204A496E6
:1025D0008CAD9DADAEADBFADA4978093D304909369
:1025E000D404A093D504B093D604A8E5B0E0AC0F12
:1025F000BD1F1C96E7EDF4E08D91819384E0E43EED
:10260000F807D1F7E396EEADFFADE397F093E5045D
:10261000E093E404309719F08581811103C064E7E9
:1026200071E002C06AE771E08BE993E00E94A510B7
:1026300062E871E08BEC94E00E94A5108BEC94E0D2
:102640000E949707682F8BE993E00E94160D0E9465
:10265000A800FDCFEBE9F3E01382128288EE93E04D
:10266000A0E0B0E084839583A683B7832EE031E0B9
:102670003183208325EC30E03587248724EC30E05B
:102680003787268720EC30E0318B208B21EC30E03F
:10269000338B228B22EC30E0358B248B26EC30E020
:1026A000378B268B118E128E138E148EE8E3F4E096
:1026B0001682178210861186128613861486158656
:1026C00016861786108A118A128A138A148A158A26
:1026D000E0E8F4E020E520831182E2E8F4E01582EE
:1026E00016821186138642E050E060E070E0448775
:1026F00055876687778713A215A614A620E231E0D6
:1027000033A722A717A6EBECF4E01382128284838E
:102710009583A683B7838AE491E091838083128EA8
:10272000118E148608950E949E13A59F900DB49F4C
:10273000900DA49F800D911D11240895A29FB001BA
:10274000B39FC001A39F700D811D1124911DB29FE5
:10275000700D811D1124911D0895EE0FFF1F05902E
:10276000F491E02D09940F931F93CF93DF93823060
:10277000910510F482E090E0E091E804F091E90422
:1027800020E030E0A0E0B0E0309719F140815181C5
:102790000281138148175907C8F08417950769F417
:1027A000109731F012960C93129713961C9327C032
:1027B0000093E8041093E90422C02115310519F0B3
:1027C0004217530718F49A01BD01EF01DF01F80128
:1027D000DBCF21153105F9F0281B390B24303105E9
:1027E00080F48A819B816115710521F0FB0193833F
:1027F000828304C09093E9048093E804FE0132963A
:1028000044C0FE01E20FF31F8193919322503109DE
:10281000398328833AC02091E6043091E704232BC2
:1028200041F420910601309107013093E704209391
:10283000E60420910401309105012115310541F490
:102840002DB73EB74091080150910901241B350B6B
:10285000E091E604F091E704E217F307A0F42E1BE1
:102860003F0B2817390778F0AC014E5F5F4F2417F4
:10287000350748F04E0F5F1F5093E7044093E6047E
:102880008193919302C0E0E0F0E0CF01DF91CF911E
:102890001F910F910895CF93DF93009709F481C0A2
:1028A000FC01329713821282A091E804B091E904EE
:1028B000109781F420813181820F931F2091E604CB
:1028C0003091E7042817390751F5F093E704E093B6
:1028D000E60467C0ED0120E030E0CE17DF0740F4EA
:1028E0004A815B819E0141155105F1F0EA01F5CF66
:1028F000D383C28340815181840F951FC817D907A4
:1029000059F488819981840F951F02969183808361
:102910008A819B81938382832115310529F4F09369
:10292000E904E093E8043DC0E901FB83EA834991AF
:102930005991C40FD51FEC17FD0761F48081918177
:10294000840F951F0296E901998388838281938180
:102950009B838A83E0E0F0E012968D919C9113971F
:10296000009719F0FD01DC01F7CF8D919C91119733
:102970009D012E5F3F4F820F931F2091E6043091FF
:10298000E7042817390769F4309729F41092E9040D
:102990001092E80402C013821282B093E704A0935D
:1029A000E604DF91CF91089581E090E0F8940C94D3
:1029B000F514FB01DC0104C08D910190801921F414
:1029C00041505040C8F7881B990B0895FB01DC016A
:1029D0004150504048F001900D920020C9F701C0CD
:0E29E0001D9241505040E0F70895F894FFCF4B
:1029EE00FFFFFFFF0000EA04800000000000160D4C
:1029FE00DD0DDB0C630D9C00EA0CFE0C00000000EC
:102A0E005D0CDD0DEA00E90000000000ED00DD0DBB
:102A1E00EA00E900ED00ED00ED0000000000ED0021
:102A2E00DD0DEA00E90000000000D3006E0CEA00A4
:102A3E00C60AB2009707A107564D4450565F317C27
:102A4E00315F564D4450560D0A0046696C65312E65
:102A5E00747874004552524F520046696C65204F8F
:082A6E004B0054657374000075
:107E0000112484B714BE81FFF0D085E080938100F7
:107E100082E08093C00088E18093C10086E0809377
:107E2000C20080E18093C4008EE0C9D0259A86E02C
:107E300020E33CEF91E0309385002093840096BBD3
:107E4000B09BFECF1D9AA8958150A9F7CC24DD24C4
:107E500088248394B5E0AB2EA1E19A2EF3E0BF2EE7
:107E6000A2D0813461F49FD0082FAFD0023811F036
:107E7000013811F484E001C083E08DD089C08234E0
:107E800011F484E103C0853419F485E0A6D080C0E4
:107E9000853579F488D0E82EFF2485D0082F10E0AE
:107EA000102F00270E291F29000F111F8ED06801E7
:107EB0006FC0863521F484E090D080E0DECF843638
:107EC00009F040C070D06FD0082F6DD080E0C81688
:107ED00080E7D80618F4F601B7BEE895C0E0D1E017
:107EE00062D089930C17E1F7F0E0CF16F0E7DF06D8
:107EF00018F0F601B7BEE89568D007B600FCFDCFD4
:107F0000A601A0E0B1E02C9130E011968C91119780
:107F100090E0982F8827822B932B1296FA010C0160
:107F200087BEE89511244E5F5F4FF1E0A038BF0790
:107F300051F7F601A7BEE89507B600FCFDCF97BE46
:107F4000E89526C08437B1F42ED02DD0F82E2BD052
:107F50003CD0F601EF2C8F010F5F1F4F84911BD097
:107F6000EA94F801C1F70894C11CD11CFA94CF0C13
:107F7000D11C0EC0853739F428D08EE10CD085E9AC
:107F80000AD08FE07ACF813511F488E018D01DD067
:107F900080E101D065CF982F8091C00085FFFCCF94
:107FA0009093C60008958091C00087FFFCCF809118
:107FB000C00084FD01C0A8958091C6000895E0E648
:107FC000F0E098E1908380830895EDDF803219F02E
:107FD00088E0F5DFFFCF84E1DECF1F93182FE3DFCA
:107FE0001150E9F7F2DF1F91089580E0E8DFEE27F6
:047FF000FF270994CA
:027FFE00040479
:0400000300007E007B
:00000001FF