:100000000C9465000C948D000C948D000C948D0064
:100010000C948D000C948D000C948D000C948D002C
:100020000C948D000C948D000C948D000C948D001C
:100030000C948D000C948D000C948D000C948D000C
:100040000C94FD010C948D000C949E0D0C94780D75
:100050000C948D000C948D000C948D000C948D00EC
:100060000C948D000C948D007C3C3E5E2B3D3F2F0C
:100070005B5D3B2C2A225C000000000800020100AE
:100080000003040700000000000000000000000062
:10009000250028002B0000000000240027002A0073
:1000A000040404040404040402020202020203031E
:1000B0000303030301020408102040800102040826
:1000C00010200102040810207B1311241FBECFEF63
:1000D000D8E0DEBFCDBF25E0A6EEB1E001C01D92A5
:1000E000A834B207E1F711E0A0E0B1E0E0E9FAE2FC
:1000F00002C005900D92A63EB107D9F710E0C5E603
:10010000D0E004C02197FE010E94FE13C436D1073F
:10011000C9F70E943E110C9446150C940000FC0196
:10012000538D448D252F30E0842F90E0821B930B5C
:10013000541710F0CF96089501970895FC01918D02
:10014000828D981761F0828DDF01A80FB11D5D9639
:100150008C91928D9F5F9F73928F90E008958FEFA7
:100160009FEF0895FC01918D828D981731F0828D5B
:10017000E80FF11D858D90E008958FEF9FEF0895B2
:10018000FC01918D228D892F90E0805C9F4F821B16
:1001900091098F739927089580E090E0892B29F0C9
:1001A0000E946E0D81110C9400000895DC01599697
:1001B000ED91FC915A973097B9F083899489A5897C
:1001C000B6894285538564857585841B950BA60B7E
:1001D000B70B811520E89207A105B10538F08FEF24
:1001E0009FE7A0E0B0E0089580E090E00895CF930D
:1001F000DF931F92CDB7DEB76983DC01ED91FC91EF
:100200000280F381E02D41E050E0BE016F5F7F4F3F
:1002100009950F90DF91CF910895089580E090E0C7
:1002200008950E942515FC01848DDF01A80FB11DE2
:10023000A35ABF4F2C91848D90E001968F7399271C
:10024000848FA689B7892C93A089B1898C918370FA
:1002500080648C93938D848D981306C00288F389F3
:10026000E02D80818F7D80830895EF92FF920F9320
:100270001F93CF93DF93EC0181E0888F9B8D8C8D52
:10028000981305C0E889F989808185FD26C0F62E7E
:100290000B8D10E00F5F1F4F0F731127E02E8C8D19
:1002A000E8120CC00FB607FCFACFE889F989808103
:1002B00085FFF5CFCE010E941301F1CF8B8DFE019A
:1002C000E80FF11DE35AFF4FF0829FB7F8940B8FB0
:1002D000EA89FB89808180620AC09FB7F894EE8921
:1002E000FF896083E889F9898081837080648083D5
:1002F0009FBF81E090E0DF91CF911F910F91FF9020
:10030000EF900895CF93DF93EC01888D8823C9F097
:10031000EA89FB89808185FD05C0A889B9898C910E
:1003200086FD0FC00FB607FCF5CF808185FFF2CFA9
:10033000A889B9898C9185FFEDCFCE010E94130168
:10034000E7CFDF91CF91089590E0FC01E858FF4F8F
:100350002491FC01EC54FF4F3491FC01E056FF4F17
:10036000E491EE2309F43CC0222339F1233091F0CB
:1003700038F42130A9F0223001F584B58F7D12C008
:10038000273091F02830A1F02430B9F4809180001A
:100390008F7D03C0809180008F77809380000DC097
:1003A00084B58F7784BD09C08091B0008F7703C07A
:1003B0008091B0008F7D8093B000F0E0EE0FFF1FC2
:1003C000E457FF4FA591B4919FB7F894611104C011
:1003D0008C913095382302C0EC913E2B3C939FBF0B
:1003E00008952FB7F8946091F2017091F301809114
:1003F000F4019091F5012FBF08951F920F920FB64F
:100400000F9211242F933F938F939F93AF93BF939A
:100410008091F2019091F301A091F401B091F50166
:100420003091F10123E0230F2D3720F40196A11D17
:10043000B11D05C026E8230F0296A11DB11D209312
:10044000F1018093F2019093F301A093F401B09332
:10045000F5018091ED019091EE01A091EF01B09135
:10046000F0010196A11DB11D8093ED019093EE0165
:10047000A093EF01B093F001BF91AF919F918F9145
:100480003F912F910F900FBE0F901F9018958FB72F
:10049000F8948091E7018FBF089561E0FC018481A9
:1004A0000E94A4018091E60181111092E601089555
:1004B0008EBD00000DB407FEFDCF8EB508958FEF01
:1004C0000C9458020F931F93CF93DF93EB010E947C
:1004D000F1018B010E945F028F3F49F00E94F10100
:1004E000601B710B6C177D07A8F380E001C081E0F1
:1004F000DF91CF911F910F910895CF93DF93EC017E
:100500008E81882389F08F8198859C012F5F3F4FD2
:1005100038872F838230924018F40E945F02F3CF15
:10052000CE010E944D021E82DF91CF9108958CBDB5
:100530009DBD0895CF93DF93EC018091E601811179
:1005400009C081E08093E6018091DE049091DF0490
:100550000E94970260E08C81DF91CF910C94A401FE
:100560008F929F92AF92BF92FF920F931F93CF9360
:10057000DF93EC01F62E49015A010E947D02CE0163
:100580000E949A026CE271E0CE010E9462028F2DFD
:1005900080640E94580208E110E0D501C401002ED9
:1005A00004C0B695A795979587950A94D2F70E94AF
:1005B000580208501109083F8FEF180771F7FF2004
:1005C00029F088E0F81204C087E803C085E901C07B
:1005D0008FEF0E94580210E00E945F028A8787FF17
:1005E00004C01F3F11F01F5FF7CFDF91CF911F9124
:1005F0000F91FF90BF90AF909F908F900895AF9212
:10060000BF92CF92DF92EF92FF920F931F93CF93FF
:10061000DF93EC016901C801820F931F8130924082
:1006200008F070C08E81882371F088819981AA8139
:10063000BB8184179507A607B70729F48F81988592
:10064000C816D906B0F5488359836A837B838B85A6
:10065000833039F089E0440F551F661F771F8A9554
:10066000D1F79A01AB0161E1CE010E94B00288236B
:1006700019F083E08D8346C00E94F1015B010E9466
:100680005F028A878F3F49F40E94F1016A197B0952
:100690006D327140A0F38FE003C08E3F31F08DE0EA
:1006A0008D83CE010E944D022DC018861F8281E0ED
:1006B0008E838F8198858C159D0540F40E945F0282
:1006C0008F819885019698878F83F3CF6701E00E1D
:1006D000F11EEC14FD0431F00E945F02F6018193DB
:1006E0006F01F7CF8F819885080F191F18870F8327
:1006F0008985882319F00115124048F0CE010E9427
:100700007D0205C0CE010E944D0280E001C081E063
:10071000DF91CF911F910F91FF90EF90DF90CF90DD
:10072000BF90AF900895EF92FF920F931F93CF93D6
:10073000DF93EC017901411551056105710511F453
:1007400082E13CC08B85833039F089E0440F551F2E
:10075000661F771F8A95D1F79A01AB0168E1CE0138
:100760000E94B002882311F084E028C08EEF0E941E
:10077000580287018EEFF81AF80181918F010E94CB
:100780005802E016F106C1F78FEF0E9458028FEF72
:100790000E9458020E945F028A878F71853031F073
:1007A00081E18D83CE010E944D0209C068E572E0AF
:1007B000CE010E946202811107C085E18D83CE01C6
:1007C0000E944D0280E014C020E030E0A9016DE0FD
:1007D000CE010E94B002811109C00E945F02811106
:1007E00005C0CE010E944D0281E002C084E1E6CF47
:1007F000DF91CF911F910F91FF90EF90089580911D
:10080000E8018823A9F14091000150910101609114
:1008100002017091030127EF31E08091F70390917D
:10082000F8030E949303811102C080E00895409173
:10083000E9015091EA016091EB017091EC014115E1
:1008400051056105710591F027EF31E08091F703C3
:100850009091F8030E949303882339F31092E901E1
:100860001092EA011092EB011092EC011092E80153
:1008700081E008958F929F92AF92BF92EF92FF9284
:100880000F931F93CF934B015C01C42F8091000104
:1008900090910101A0910201B09103018815990581
:1008A000AA05BB0501F10E94FF03811102C080E08F
:1008B00020C087EFE82E81E0F82E00E012E020E073
:1008C00030E0B501A4018091F7039091F8030E94F4
:1008D000FF02882361F38092000190920101A092AF
:1008E0000201B09203018091E801C82BC093E80196
:1008F00081E0CF911F910F91FF90EF90BF90AF904B
:100900009F908F9008954F925F926F927F928F92F7
:100910009F92AF92BF92CF92DF92EF92FF920F938E
:100920001F93CF93DF93EC014230510561057105B0
:1009300010F480E078C089859A85AB85BC850196E6
:10094000A11DB11D84179507A607B70790F3CB88A3
:10095000DC88ED88FE888F89803129F4BB27A72F9A
:10096000962F852F09C0DB01CA01E7E0B695A79550
:1009700097958795EA95D1F7480159012A013B01DE
:10098000C80ED91EEA1EFB1E809100019091010144
:10099000A0910201B0910301C816D906EA06FB0630
:1009A00081F48F898031A9F4B301A201552766270C
:1009B0007727440F551FFA01E950FE4F918280823C
:1009C00019C040E0C701B6010E943A048111E9CF85
:1009D000B0CFB301A2014F77552766277727440F81
:1009E000551F440F551FFA01E950FE4F8082918236
:1009F000A282B3828091E80181608093E8018A89B4
:100A0000823080F08D819E81AF81B885C80ED91E5D
:100A1000EA1EFB1EC092E901D092EA01E092EB01CE
:100A2000F092EC0181E0DF91CF911F910F91FF9047
:100A3000EF90DF90CF90BF90AF909F908F907F907E
:100A40006F905F904F9008958F929F92AF92BF9258
:100A5000CF92DF92EF92FF920F931F93CF93DF938A
:100A6000FC0181859285A385B4850196A11DB11DE8
:100A700084179507A607B70710F480E05BC083884A
:100A80009488A588B6888789803129F4BB27A72F49
:100A9000962F852F09C0DB01CA01C7E0B695A7953F
:100AA00097958795CA95D1F7E9016A017B018F0176
:100AB000BC01CD01680D791D8A1D9B1D8090000130
:100AC00090900101A0900201B09003016815790592
:100AD0008A059B0591F4F80187898031A1F4DD2412
:100AE000EE24FF24C601880F991FFC01E950FE4F38
:100AF00080819181A0E0B0E018C040E00E943A04FB
:100B00008111E9CFBACFE894C7F8DD24EE24FF24A1
:100B1000C601880F991F880F991FFC01E950FE4FED
:100B200080819181A281B381BF7088839983AA83D8
:100B3000BB8381E0DF91CF911F910F91FF90EF90E8
:100B4000DF90CF90BF90AF909F908F9008958F923D
:100B50009F92AF92BF92CF92DF92EF92FF920F934C
:100B60001F93CF93DF93EC018D81811102C080E050
:100B700078C00B891C892D893E8904171507260723
:100B80003707A8F36A017B01823029F4CA86DB8625
:100B9000EC86FD860DC0C114D104E104F10451F4CA
:100BA0001E821F82188619861A861B861C861D8641
:100BB00081E057C08A849B84AC84BD84EB8DFC8D1E
:100BC000258530E0275F3F4FB501A4014150510911
:100BD00061097109022E04C076956795579547956E
:100BE0000A94D2F7D701C6010197A109B10904C03F
:100BF000B695A795979587952A95D2F78417950767
:100C0000A607B70720F089288A288B2871F44F8916
:100C1000588D698D7A8D4E835F83688779874C0103
:100C20005D018E010A5F1F4F16C0841B950BA60B3A
:100C3000B70BF5CF4E815F816885798598018B8DE3
:100C40009C8D0E94240591E0891A9108A108B108A1
:100C5000882309F48CCF81149104A104B10451F7C5
:100C600095CFDF91CF911F910F91FF90EF90DF9083
:100C7000CF90BF90AF909F908F9008953F924F92EA
:100C80005F926F927F928F929F92AF92BF92CF921C
:100C9000DF92EF92FF920F931F93CF93DF93CDB725
:100CA000DEB72C970FB6F894DEBF0FBECDBF5C0148
:100CB000DC015B968D909C905C971696CD90DD90B4
:100CC000ED90FC901997C114D104E104F10439F0BE
:100CD000BFEFCB1ADB0AEB0AFB0A312C07C0F40189
:100CE000C080D180E280F38033243394F401818585
:100CF0009285A385B4859C01AD012F5F3F4F4F4F77
:100D00005F4F29873A874B875C87260137011D8211
:100D10001E821F821886F40181859285A385B48581
:100D20002D813E814F815885281739074A075B0777
:100D300008F063C089859A85AB85BC858C159D05B7
:100D4000AE05BF0550F482E0C82ED12CE12CF12C69
:100D500092E0492E512C612C712C9E012F5F3F4F48
:100D6000B701A601C4010E942405882309F445C0E7
:100D700089819A81AB81BC81892B8A2B8B2B41F095
:100D8000260137019FEF491A590A690A790A05C0F5
:100D9000C414D504E604F70491F02D813E814F81FF
:100DA00058852F5F3F4F4F4F5F4F2D833E834F83BB
:100DB00058873FEFC31AD30AE30AF30AACCF0FEF09
:100DC0001FEF2FEF3FE0B301A201C4010E94830493
:100DD000882399F0D50116964D915D916D917C9186
:100DE0001997411551056105710549F0930182017B
:100DF000C4010E948304811102C080E02AC0D50191
:100E000016964D925D926D927C921997332051F017
:100E1000D301C2010196A11DB11DF401808391830C
:100E2000A283B383F5018789908DA18DB28D892B23
:100E30008A2B8B2B69F4D50157964D925D926D925A
:100E40007C925A9714968C911497806814968C9380
:100E500081E02C960FB6F894DEBF0FBECDBFDF91B8
:100E6000CF911F910F91FF90EF90DF90CF90BF90A7
:100E7000AF909F908F907F906F905F904F903F903A
:100E800008954F925F926F927F92AF92BF92CF92EE
:100E9000DF92EF92FF920F931F93CF93DF931F92F6
:100EA000CDB7DEB7FC012581222309F4C1C08481BE
:100EB00080FFBEC083899489A589B6894284538402
:100EC0006484758484159505A605B70509F4B0C03A
:100ED0006F015201F1E0BF22D6015B968D919C918A
:100EE0005C97B301A20139E07695679557954795D0
:100EF0003A95D1F7223071F4FC01828D938DA48D47
:100F0000B58D8A019B01080F191F2A1F3B1FC901BC
:100F1000B8014AC0DC0114961C9111501423A1148D
:100F2000B104F9F411111DC045284628472851F491
:100F3000F6018789908DA18DB28D86839783A087D6
:100F4000B1870FC0D60116964D915D916D917C9140
:100F5000199796012A5F3F4F0E942405882309F4C0
:100F600067C0F601238D348D86819781A085B18578
:100F70000297A109B109AC01BD01F901058404C0C2
:100F8000440F551F661F771F0A94D2F786859785F1
:100F9000A089B189840F951FA61FB71FBC01CD0181
:100FA000610F711D811D911DD60114962C9126FF94
:100FB0000DC04090000150900101609002017090BE
:100FC0000301461657066806790699F440E00E9428
:100FD0003A04882369F1F501E950FE4FDE011196CC
:100FE0009F012F5F3F4F2E173F0799F081918D93FF
:100FF000FACFFE0131967F0101E010E09501AB01CF
:10100000BC018091F7039091F8030E94FF028823AE
:1010100079F0F60182859385A485B5850196A11D99
:10102000B11D82879387A487B587898190E002C02C
:101030008FEF9FEF0F90DF91CF911F910F91FF9056
:10104000EF90DF90CF90BF90AF907F906F905F90C8
:101050004F900895FC01818D928D009711F00C94B2
:1010600041078FEF9FEF08950F931F93CF93DF9367
:10107000FC01818D928D0097B9F0EF010E9441072C
:101080008C010F3F8FEF180791F0898D9A8DFC012D
:1010900042855385648575854150510961097109FF
:1010A0000E94A705C80105C080E090E002C08FEF54
:1010B0009FEFDF91CF911F910F910895CF93DF9311
:1010C000EC018D81882379F18C8187FF28C06E85A2
:1010D0007F858889998941E00E943A04882319F123
:1010E000EA8980E2E89FF0011124E950FE4F309731
:1010F000D1F08D81823040F48B899C89AD89BE8985
:10110000848F958FA68FB78F8F89988DA98DBA8D73
:10111000938F828FB58BA48B8C818F778C83DF919B
:10112000CF910C94FF0380E0DF91CF9108958F92CF
:101130009F92AF92BF92CF92DF92EF92FF920F9366
:101140001F93CF93DF9300D000D0CDB7DEB77C01E3
:1011500080E2689FF0011124E950FE4F9385917160
:1011600021F0842F827409F08FC0142FD70152967A
:101170006C935297409100015091010160910201DE
:10118000709103011E964D935D936D937C935197DF
:101190004489558960E070E0BA0155274427828D63
:1011A000938DA0E0B0E0482B592B6A2B7B2BD70105
:1011B00057964D935D936D937C935A978385887171
:1011C00059F4848D958DA68DB78DF701838B948B03
:1011D000A58BB68B81E012C0803109F055C0970114
:1011E0002D5E3F4FD7015B968D919C915C970E943D
:1011F0008D0E882309F448C084E0F7018583812F90
:101200008F70D70114968C931497F701168217826A
:10121000108611861A961D921D921D921C921D9782
:1012200016FF34C015968C91813071F511FF2CC0DA
:10123000F7014389548965897689452B462B472BCD
:1012400009F461C040E050E0BA01C7010E94A7055F
:101250008823D1F0F7018788908CA18CB28CC38C45
:10126000D48C82E090E0A0E0B0E0F601808391832E
:10127000A283B3839E012F5F3F4FB501A401C60136
:101280000E942405811104C080E03DC081E03BC084
:1012900000E010E09801B501A401C6010E9483049A
:1012A000882391F389809A80AB80BC80D6015796C1
:1012B0008C91803129F088EF9FEFAFEFBFE004C041
:1012C00088EF9FEFA0E0B0E088169906AA06BB065B
:1012D00088F2D70157961D921D921D921C925A9723
:1012E000F701138A148A158A168A84818068848398
:1012F000C7010E945E08882339F240E050E0BA013D
:10130000C7010E94A7050F900F900F900F90DF91DB
:10131000CF911F910F91FF90EF90DF90CF90BF90F2
:10132000AF909F908F9008952F923F924F925F922F
:101330006F927F928F929F92AF92BF92CF92DF92E5
:10134000EF92FF920F931F93CF93DF93CDB7DEB74A
:101350002B970FB6F894DEBF0FBECDBF7C01FE0108
:101360003196CE010C966F0130E23193E817F90700
:10137000E1F7DA0130E087E09D91992331F19E3267
:1013800031F48A3009F46BC138E08AE0F5CFE8E641
:10139000F0E04491442321F031969413FACF5FC1D9
:1013A000831708F45CC14FED490F4E3508F057C163
:1013B00041E0430FF601E30FF11D3FE9390F3A31E8
:1013C00008F490529083342FD7CF8981803209F46A
:1013D00046C1322E8B01DB015B968D919C915C970F
:1013E000F701948F838F16961D921D921D921C9269
:1013F0001997FB011286138614861586B12CF80105
:1014000082859385A485B5854389548965897689C4
:1014100084179507A607B70708F05BC025E0B695C7
:10142000A795979587952A95D1F7F82FFF70AF2E3E
:10143000D80115968C91823008F411C1C8010E9420
:10144000410797FD0CC1F80182859385A485B58578
:101450004F96A11DB11D82879387A487B587F0E2BF
:10146000AF9EB001112469507E4F6115710509F4DA
:10147000F6C0DB018C91882319F0853EC1F4F1C0E0
:10148000B1100EC0F701A28A809100019091010174
:10149000A0910201B091030186879787A08BB18B41
:1014A000DB018C91882399F0BB24B394A8CF4BE047
:1014B00050E0C6010E942A15892B09F0A0CF832D88
:1014C0008073803309F4CBC0432D6A2DC4C0BB2484
:1014D000B394832D8271823109F0C1C0BB20C1F069
:1014E000F701668577858089918941E00E943A04F9
:1014F000882309F4B4C0D70152968C91B0E28B9F37
:10150000C001112489509E4F009709F078C0A7C0F0
:10151000F8018581823009F4A2C0C8010E943E060C
:10152000882309F49CC0D8015B96ED91FC915C97EF
:1015300016968D909D90AD90BC901997B2E08B1A45
:101540009108A108B108058404C0880C991CAA1C44
:10155000BB1C0A94D2F786859785A089B189880E2D
:10156000991EAA1EBB1E2480E1E08E1A9108A108D4
:10157000B108222009F124013501420C511C611CE3
:10158000711C0E94FF03882309F469C0E7EFF1E0B2
:10159000119223E0E73FF207D9F740920001509201
:1015A000010160920201709203018091E801816063
:1015B0008093E8012A94DDCFD8015B96ED91FC91F0
:1015C0005C9780E092E0A0E0B0E0058404C0880F62
:1015D000991FAA1FBB1F0A94D2F7F80143895489A7
:1015E00065897689840F951FA61FB71F838B948BFF
:1015F000A58BB68BD70152961C9287EF91E020E223
:10160000FC0111922A95E9F72BE0F601DC0101902B
:101610000D922A95E1F721E238E2DC0151963C93E4
:101620002E93509740E058E01F965C934E931E9780
:1016300053963C932E93529759963C932E935897DA
:1016400057965C934E9356970E94FF03882339F078
:10165000432DF7016289C7010E94970805C080E009
:1016600003C0B11021CF0ECF2B960FB6F894DEBF7A
:101670000FBECDBFDF91CF911F910F91FF90EF90E3
:10168000DF90CF90BF90AF909F908F907F906F90A2
:101690005F904F903F902F900895CF93DF93EC0190
:1016A0000E945E08882311F01D8281E0DF91CF91B6
:1016B0000895FC01818D928D009711F00C945E08C5
:1016C00008952F923F924F925F926F927F928F92E6
:1016D0009F92AF92BF92CF92DF92EF92FF920F93C1
:1016E0001F93CF93DF9300D000D0CDB7DEB78C012E
:1016F0005B011A01DC0115968C9115978130C9F4B4
:1017000014968C9181FF15C082FF1DC0F80143899A
:1017100054896589768982859385A485B5858417E2
:101720009507A607B70779F0C8010E94A7058111A0
:101730000AC081E090E0D80113969C938E93129793
:1017400080E090E036C1610183C05B968D919C91F1
:101750005C97FC0174802FEF270D2A013B0139E0D3
:1017600076946794579447943A95D1F7722E7420E3
:101770007A01F1E0FF22772009F476C080E092E060
:101780008E199F0946018C159D0508F44C01D8015E
:101790005B962D913C915C9716968D919D910D9045
:1017A000BC91A02D0297A109B109F901058404C0DB
:1017B000880F991FAA1FBB1F0A94D2F74685578529
:1017C00060897189840F951FA61FB71F9C01AD0109
:1017D000270D311D411D511D29013A01811432E0AF
:1017E000930609F088C08091000190910101A091B9
:1017F0000201B0910301481659066A067B0659F4A6
:101800008FEF9FEFDC018093000190930101A09383
:101810000201B09303019501B301A2018091F70386
:101820009091F8030E949303882309F482CF9EEFDE
:10183000B91AC818D908F80182859385A485B58599
:10184000880D991DA11DB11D82879387A487B58737
:10185000D8011A964D915D916D917C911D97C1149F
:10186000D10409F072CF87C0E114F10409F086CFEA
:1018700016964D915D916D917C9119974115510589
:101880006105710559F457968D919D910D90BC910C
:10189000A02D0097A105B10541F521C09E012F5F44
:1018A0003F4F0E942405882309F44BCF89819A81F8
:1018B000AB81BC81F801238D348DF901278920315A
:1018C00029F048EF5FEF6FEF7FE004C048EF5FEF74
:1018D00060E070E084179507A607B70730F0C801ED
:1018E0000E943E0681114ACF24CFF8018683978358
:1018F000A087B18743CFE114F10429F5D8011A96E6
:101900004D915D916D917C911D9753968D919D9117
:101910000D90BC91A02D481759076A077B0798F0D6
:101920000E94FF03882309F404CF409200015092E3
:10193000010160920201709203018091E8018160CF
:101940008093E80108C041E0C301B2010E943A045B
:10195000882309F4EECED501F701E950FE4F9F012F
:10196000280D391D2E173F0719F08D918193FACF5D
:10197000A80CB91C5ECFF80183899489A589B68922
:1019800084179507A607B70738F4438B548B658BEC
:10199000768B848180688483F801848183FD02C012
:1019A000C10107C0C8010E945E08882309F4C1CEA6
:1019B000F7CF0F900F900F900F90DF91CF911F9165
:1019C0000F91FF90EF90DF90CF90BF90AF909F90DE
:1019D0008F907F906F905F904F903F902F900895E1
:1019E000CF93DF931F92CDB7DEB7698341E050E01C
:1019F000BE016F5F7F4F0E94610B0F90DF91CF910F
:101A00000895CF93DF93EC01898D9A8D009739F477
:101A100081E090E09B838A8380E090E00BC0FC0132
:101A2000138212820E94610BE98DFA8D228133812B
:101A3000232B71F7DF91CF910895FC01DB01129602
:101A40008D919C9113979383828380E291E091839F
:101A5000808314968C911497848315968C91159796
:101A6000858316964D915D916D917C911997468372
:101A70005783608771871A964D915D916D917C9126
:101A80001D9742875387648775871E964D915D9198
:101A90006D917C91519746875787608B718B5296D9
:101AA0008C915297828B53964D915D916D917C9163
:101AB0005697438B548B658B768B57964D915D91E2
:101AC0006D917C915A97478B508F618F728F5B9687
:101AD0008D919C915C97948F838F089589EF93E00B
:101AE0000E94C00021E0892B09F420E0822F089594
:101AF0001F920F920FB60F9211242F933F934F9383
:101B00005F936F937F938F939F93AF93BF93EF9365
:101B1000FF9389EF93E00E941301FF91EF91BF9132
:101B2000AF919F918F917F916F915F914F913F9175
:101B30002F910F900FBE0F901F9018951F920F922C
:101B40000FB60F9211242F938F939F93EF93FF93D0
:101B5000E0910904F0910A048081E0910F04F09172
:101B6000100482FD12C09081809112048F5F8F73E8
:101B700020911304821751F0E0911204F0E0E75035
:101B8000FC4F958F8093120401C08081FF91EF91EB
:101B90009F918F912F910F900FBE0F901F901895CE
:101BA000CF92DF92EF92FF920F931F93CF93DF9329
:101BB0006C017A018B01C0E0D0E0CE15DF0581F029
:101BC000D8016D918D01D601ED91FC910190F081CC
:101BD000E02DC6010995892B11F02196EECF7E01EB
:101BE000C701DF91CF911F910F91FF90EF90DF9090
:101BF000CF900895EF92FF920F931F93CF93DF93AF
:101C0000EC017B018A011B821A8288EE93E0A0E03E
:101C1000B0E08C839D83AE83BF8388E391E099839A
:101C200088838DE190E00E9404149A8F898F009739
:101C300079F02DE1F701DC0101900D922A95E1F791
:101C40004CE050E0B801CE010C960E943715188E7A
:101C5000DF91CF911F910F91FF90EF900895E9EFE1
:101C6000F3E0A089B18982E08C93A485B5851C92AC
:101C7000A685B7858FEC8C93108EA489B58986E0F4
:101C80008C93A289B3898C9180618C93A289B3894A
:101C90008C9188608C93A289B3898C9180688C9395
:101CA0000288F389E02D80818F7D80830895CF9312
:101CB000DF93FC018281938190932C0580932B0507
:101CC00084819581A681B78180932D0590932E05FF
:101CD000A0932F05B093300580859185A285B385AB
:101CE0008093310590933205A0933305B09334056A
:101CF000EF012C96A5E3B5E089918D9385E0A234A0
:101D0000B807D1F7818D928D90934305809342055A
:101D100089E295E0DF91CF9108954F925F926F92A3
:101D20007F92AF92BF92CF92DF92EF92FF920F938A
:101D30001F93CF93DF9300D000D0CDB7DEB78C01D7
:101D400049835A836B837C835901C12CD12C760142
:101D5000412C82E0582E612C712C49815A816B8173
:101D60007C819E012F5F3F4FC8010E94240588237C
:101D700051F1D301C201F801058404C0880F991FF5
:101D8000AA1FBB1F0A94D2F7C80ED91EEA1EFB1E5B
:101D900049815A816B817C818789803129F088EF64
:101DA0009FEFAFEFBFE004C088EF9FEFA0E0B0E08F
:101DB000481759076A077B0780F2F501C082D18274
:101DC000E282F38281E00F900F900F900F90DF91ED
:101DD000CF911F910F91FF90EF90DF90CF90BF9028
:101DE000AF907F906F905F904F900895CF93DF9367
:101DF000FC012581222311F080E049C0EC01809193
:101E000003058031C1F482E08583178A108E118E1C
:101E1000128E8091040590910505A0E0B0E025E0C8
:101E2000880F991FAA1FBB1F2A95D1F7838B948B0C
:101E3000A58BB68B19C08032F9F683E0858340917B
:101E40000605509107056091080570910905478BBB
:101E5000508F618F728F9F012D5E3F4F8CEE94E00B
:101E60000E948D0E882341F28CEE94E09C8F8B8F24
:101E700081E08C831E821F82188619861A861B8633
:101E80001C861D861E861F86188A198A1A8ADF916B
:101E9000CF910895CF92DF92FF920F931F93CF932C
:101EA000DF93CDB7DEB7C755D1090FB6F894DEBFC3
:101EB0000FBECDBF8C01F62E1C821B8280E2C82E85
:101EC00081E0D82EDA82C9821E82CE0101960E945C
:101ED000F60EBE016F5F7F4FCE01CB960E941D0DA7
:101EE00019A218A2DF8ECE8E1BA221968FAD21974C
:101EF000811113C0F8011382128288EE93E0A0E0F2
:101F0000B0E084839583A683B78388E391E09183CF
:101F10008083128E118E14862BC02F2D42ED51E03E
:101F2000BE01655C7F4FCE014E960E9494098823C6
:101F300009F3CE01CB960E944D0B8F2D8670863013
:101F400041F449A95AA96BA97CA9CE014E960E94D9
:101F5000A705BE01625E7F4FCE0101960E941D0D56
:101F600042ED51E0BE016F5F7F4FC8010E94FA0D44
:101F7000C801C95ADF4F0FB6F894DEBF0FBECDBF00
:101F8000DF91CF911F910F91FF90DF90CF90089537
:101F90008F929F92AF92BF92CF92DF92EF92FF9279
:101FA000CF93DF93C82F80EE94E09093F803809353
:101FB000F703CC2369F1C53010F080E00CC140E09C
:101FC00060E070E0CB010E943A048823B1F320E185
:101FD000C29FC001112489519E4FFC01E254FE4F63
:101FE00020812F7751F73C96408151816281738126
:101FF000443651056105710500F33497C080D180E6
:10200000E280F380C114D104E104F10421F4D5CFBE
:10201000C12CD12C760140E0C701B6010E943A04E0
:10202000882359F280910202909103028115924017
:1020300021F6A0910702AA2309F4BFCF60910502FF
:10204000709106026115710509F4B7CF2091040261
:10205000222309F4B2CFA093FE042093F00480E081
:1020600030E041E050E0C82FFA01082E02C0EE0F28
:10207000FF1F0A94E2F72E173F0739F08F5FC83031
:1020800091F789E08093F90498CF8093F904209127
:102090000D0230910E022115310519F040E050E09B
:1020A00008C020911B0230911C0240911D025091EA
:1020B0001E022093F1043093F2044093F3045093F2
:1020C000F40446015701860E971EA11CB11C809294
:1020D000FF0490920005A0920105B0920205E091E4
:1020E0000802F0910902F0930505E0930405B0E0C1
:1020F0000E94E413860E971EA81EB91E8092060544
:1021000090920705A0920805B092090585E0EE0FB0
:10211000FF1F8A95E1F7E150FE4FEF2FFF27E6956D
:102120008E0E9F1EA11CB11C8092FA049092FB049B
:10213000A092FC04B092FD0420910A0230910B029F
:102140002115310521F0A90160E070E008C040913F
:102150001702509118026091190270911A02D7016A
:10216000C60188199909AA09BB09840F951FA61FE2
:10217000B71F04C0B695A79597958795CA95D2F7CE
:102180008093F5049093F604A093F704B093F804B9
:10219000853F2FE09207A105B10510F48CE018C02F
:1021A000853F9F4FA105B10510F480E111C08091DA
:1021B000230290912402A0912502B09126028093DF
:1021C000060590930705A0930805B093090580E2E2
:1021D0008093030581E0DF91CF91FF90EF90DF9036
:1021E000CF90BF90AF909F908F90089590E0FC01AA
:1021F000EC54FF4F2491FC01E056FF4F849188235B
:1022000099F090E0880F991FFC01EA56FF4FA591C5
:10221000B491FC01E457FF4F859194918FB7F894E6
:10222000EC91E22BEC938FBF08956115710579F065
:10223000FB0101900020E9F73197AF01461B570BD6
:10224000DC01ED91FC910280F381E02D099480E0A6
:1022500090E008950F931F93CF93DF93EC010E94BA
:1022600015118C0165E571E0CE010E941511800FFA
:10227000911FDF91CF911F910F910895CF93DF931D
:10228000CDB7DEB76B970FB6F894DEBF0FBECDBFEC
:10229000789484B5826084BD84B5816084BD85B541
:1022A000826085BD85B5816085BD80916E0081604D
:1022B00080936E00109281008091810082608093F3
:1022C00081008091810081608093810080918000F5
:1022D0008160809380008091B10084608093B10020
:1022E0008091B00081608093B00080917A0084601A
:1022F00080937A0080917A00826080937A00809146
:102300007A00816080937A0080917A00806880935F
:102310007A001092C1001092DA041092DB0410923D
:10232000DC041092DD04109298041092990410922B
:102330009A0410929B040E94F1016B017C014B01F5
:102340005C0188EB880E8BE0981EA11CB11C0E94DA
:10235000F1016C157D058E059F0528F08616970600
:10236000A806B906A0F789EF93E09093D90480936B
:10237000D8040E942F0E0E94F1016093980470937C
:10238000990480939A0490939B0466E471E0809191
:10239000D8049091D9040E9415110E94F1016B019B
:1023A0007C014B015C018AE0880E911CA11CB11CD0
:1023B0000E94F1016C157D058E059F0528F086169B
:1023C0009706A806B906A0F781E08093AC040E94A6
:1023D0002F0E68E571E089EF93E00E94151180915E
:1023E0000F05882321F08AE095E00E944D0B1092A2
:1023F000EB041092E9041092E6041092E50484E0E4
:102400008093E4040E94F1018B018091E4040E9416
:10241000F61061E08091E4040E94A401FFB6F894F4
:102420008091F601811124C0EAEAF0E08491EEEB9C
:10243000F0E09491E82FF0E0EE0FFF1FEA56FF4F17
:10244000A591B491EC91E92321F461E08AE00E9426
:10245000A4018AE00E94F6108CB580618CBD8CB519
:1024600080648CBD8DE00E94F6108BE00E94F61017
:102470008091F6018F5F8093F601FFBE82E5809325
:10248000DE041092DF048091DE049091DF040E944C
:1024900097022AE0F22E8FEF0E945802FA94F11070
:1024A000FACF80EE94E00E949A0220E030E0A90189
:1024B00060E080EE94E00E94B002F82E8093EA047F
:1024C00081E0F81649F00E94F101601B710B613D3B
:1024D000774058F381E056C02AEA31E040E050E00E
:1024E00068E080EE94E00E94B00282FF03C0F092A8
:1024F000EB0410C094E0F92E0E945F028093EA047E
:10250000FA94F110F9CF8A3A11F082E03BC082E0F0
:102510008093EB048091EB04823021F0C12CD12C0C
:10252000760105C0C12CD12CE12C80E4F82E20E0EE
:1025300030E0A90167E380EE94E00E94B002A701B9
:10254000960169E280EE94E00E94B0028093EA0472
:10255000882349F00E94F101601B710B613D7740B7
:1025600030F388E00FC08091EB04823001F520E069
:1025700030E0A9016AE380EE94E00E94B002882373
:1025800041F086E08093E50480EE94E00E944D02E5
:1025900028C00E945F02807C803C19F483E0809315
:1025A000EB040E945F020E945F020E945F0280EEC5
:1025B00094E00E944D0280E58093DE041092DF04D7
:1025C00081E00E94C80F882339F08AE095E00E94DC
:1025D000F60E882331F00CC080E00E94C80F8111F4
:1025E000F4CF60E771E089EF93E00E942A11FFCFFA
:1025F00067E871E089EF93E00E942A1167E1CE015C
:1026000001960E944A0FCE0101960E94570EE0915A
:102610004205F0914305309721F18581882309F126
:102620006CE971E089EF93E00E94151163EB71E0B2
:1026300089E295E00E942A1180914205909143051C
:10264000009761F00E944D0B8091420590914305E7
:102650000E949C14109243051092420566E971E0B5
:1026600002C064EC71E089EF93E00E942A1161E0FE
:10267000CE0101960E944A0FCE0101960E94570E8C
:10268000E0914205F0914305309761F185818823FF
:1026900049F16BED71E089EF93E00E942A1189E224
:1026A00095E00E94D600892B51F089E295E00E94C6
:1026B0002A08682F89EF93E00E943501F0CF8091BE
:1026C000420590914305009799F00E944D0B80912F
:1026D0004205909143050E949C141092430510926C
:1026E000420506C064EC71E089EF93E00E942A1174
:1026F0000E94CC00FDCFE9EFF3E01382128288EE56
:1027000093E0A0E0B0E084839583A683B7832EE0B6
:1027100031E03183208325EC30E03587248724ECB9
:1027200030E03787268720EC30E0318B208B21EC9E
:1027300030E0338B228B22EC30E0358B248B26EC7F
:1027400030E0378B268B118E128E138E148EE6E9B5
:10275000F4E016821782108611861286138614867C
:10276000158616861786108A118A128A138A148A89
:10277000158AEEEDF4E020E520831182E0EEF4E02E
:10278000158216821186138642E050E060E070E008
:10279000448755876687778713A215A614A620E27B
:1027A00031E033A722A717A6E9E2F5E013821282EF
:1027B00084839583A683B78388E391E091838083A4
:1027C000128E118E148608950E94EF13A59F900D0E
:1027D000B49F900DA49F800D911D11240895A29F78
:1027E000B001B39FC001A39F700D811D1124911DE5
:1027F000B29F700D811D1124911D0895EE0FFF1FD2
:102800000590F491E02D09940F931F93CF93DF93DC
:102810008230910510F482E090E0E0914605F0915D
:10282000470520E030E0A0E0B0E0309719F14081AA
:1028300051810281138148175907C8F08417950701
:1028400069F4109731F012960C93129713961C931B
:1028500027C0009346051093470522C02115310576
:1028600019F04217530718F49A01BD01EF01DF0177
:10287000F801DBCF21153105F9F0281B390B243085
:10288000310580F48A819B816115710521F0FB017E
:102890009383828304C09093470580934605FE018D
:1028A000329644C0FE01E20FF31F819391932250B0
:1028B0003109398328833AC0209144053091450578
:1028C000232B41F4209106013091070130934505F7
:1028D0002093440520910401309105012115310513
:1028E00041F42DB73EB74091080150910901241BD6
:1028F000350BE0914405F0914505E217F307A0F48C
:102900002E1B3F0B2817390778F0AC014E5F5F4F45
:102910002417350748F04E0F5F1F5093450540932D
:1029200044058193919302C0E0E0F0E0CF01DF9194
:10293000CF911F910F910895CF93DF93009709F4E2
:1029400081C0FC01329713821282A0914605B0919A
:102950004705109781F420813181820F931F2091C8
:102960004405309145052817390751F5F093450581
:10297000E093440567C0ED0120E030E0CE17DF07AB
:1029800040F44A815B819E0141155105F1F0EA0155
:10299000F5CFD383C28340815181840F951FC8171F
:1029A000D90759F488819981840F951F02969183E4
:1029B00080838A819B81938382832115310529F449
:1029C000F0934705E09346053DC0E901FB83EA83A8
:1029D00049915991C40FD51FEC17FD0761F480810F
:1029E0009181840F951F0296E901998388838281E2
:1029F00093819B838A83E0E0F0E012968D919C9115
:102A00001397009719F0FD01DC01F7CF8D919C9190
:102A100011979D012E5F3F4F820F931F2091440518
:102A2000309145052817390769F4309729F4109239
:102A300047051092460502C013821282B0934505E5
:102A4000A0934405DF91CF91089581E090E0F89440
:102A50000C944615FB01DC0104C08D910190801996
:102A600021F441505040C8F7881B990B0895FB0191
:102A7000DC014150504048F001900D920020C9F710
:102A800001C01D9241505040E0F70895F894FFCFE7
:102A9000FFFFFFFF00004805800000000000350137
:102AA000D00D8F008201C0009E00B2000000000027
:102AB000F00CD00D0E010D01000000001101D00D31
:102AC0000E010D0100000000F700010D0E01590B71
:102AD000D6002A083408564D4450565F317C315F89
:102AE000564D4450560D0A00496E697469616C690F
:102AF0007A696E6720534420636172642E2E2E0023
:102B0000696E697469616C697A6174696F6E206657
:102B100061696C65642100696E697469616C697AC8
:102B20006174696F6E20646F6E652E0057726974F0
:102B3000696E6720746F20746573742E7478742EB8
:102B40002E2E0074657374696E6720312C20322C30
:102B500020332E006572726F72206F70656E696E21
:102B60006720746573742E74787400746573742EA2
:062B70007478743A0000C5
:00000001FF
